:020000040800F2
:10000000C007002089010008471400083F140008B9
:1000100043140008A70200086D1800080000000043
:10002000000000000000000000000000BB140008F9
:10003000AB0200080000000049140008BD140008CD
:10004000A3010008A3010008A3010008A301000800
:10005000A3010008A3010008AD020008A3010008E5
:10006000A3010008A3010008A3010008A3010008E0
:10007000A3010008A3010008A3010008A3010008D0
:10008000A3010008A3010008A3010008A3010008C0
:10009000A3010008A3010008A3010008A3010008B0
:1000A000A3010008A3010008A3010008A3010008A0
:1000B000A3010008A3010008A3010008A301000890
:1000C000A3010008A3010008A3010008A301000880
:1000D000A30100085D180008A3010008A30100089F
:1000E000B7020008A3010008A301000800F002F80D
:1000F00000F03AF80AA090E8000C82448344AAF188
:100100000107DA4501D100F02FF8AFF2090EBAE885
:100110000F0013F0010F18BFFB1A43F0010318473B
:10012000D8170000F8170000103A24BF78C878C12B
:10013000FAD8520724BF30C830C144BF04680C60ED
:10014000704700000023002400250026103A28BF35
:1001500078C1FBD8520728BF30C148BF0B60704739
:100160001FB51FBD10B510BD00F063F81146FFF7B5
:10017000F7FF01F099FB00F081F803B4FFF7F2FFFD
:1001800003BC00F089F8000009488047094800478F
:10019000FEE7FEE7FEE7FEE7FEE7FEE7FEE7FEE737
:1001A000FEE7FEE704480549054A064B7047000094
:1001B000C5140008ED000008C0010020C0070020A1
:1001C000C0030020C003002010B5203AC0F00B800F
:1001D000B1E81850203AA0E81850B1E81850A0E84B
:1001E0001850BFF4F5AF5FEA027C24BFB1E81850A5
:1001F000A0E8185044BF18C918C0BDE810405FEA15
:10020000827C24BF51F8043B40F8043B08BF704790
:10021000D20728BF31F8023B48BF11F8012B28BF95
:1002200020F8023B48BF00F8012B70477047704729
:100230007047754600F02CF8AE46050069465346F7
:1002400020F00700854618B020B5FFF7ABFFBDE8EA
:1002500020404FF000064FF000074FF000084FF02D
:10026000000B21F00701AC46ACE8C009ACE8C009BE
:10027000ACE8C009ACE8C0098D46704710B504462B
:10028000AFF300802046BDE81040FFF776BF0000C6
:10029000004870476001002001491820ABBEFEE70E
:1002A00026000200704700BFFEE7704710B501202E
:1002B00000F0CCF810BD10B54FF4005000F0C6F8B7
:1002C00010BD000070B50446002594F821000228F6
:1002D00003D00420A063012548E02068006820F0D6
:1002E0000E00216808602068006820F00100216885
:1002F00008601F492068884201D1012026E01C497E
:1003000014312068884201D110201FE0184928319B
:100310002068884201D1801518E015493C312068D9
:10032000884201D1801411E011495031206888427F
:1003300002D14FF4803009E00D49643120688842D1
:1003400002D14FF4801001E04FF080700849083965
:100350004860012084F8210000BF002084F82000BC
:1003600000BF606B10B12046616B8847284670BDA6
:100370000800024070B50546012D31D0B5F5005F8B
:1003800058D14FF400512D4800F0FEF9012813D147
:10039000002407E04FF40051284800F0F5F900B9B7
:1003A00070BD641C264800688442F3D340BF01211D
:1003B000244800F0F1F912E0002408E04FF4005165
:1003C0001E4800F0E1F9012800D1E9E7641C1C484F
:1003D00000688442F2D301211A4800F0DDF929E0D7
:1003E0000121194800F0D0F990B9002407E001215B
:1003F000154800F0C9F9012800D1D1E7641C104864
:1004000000688442F3D301210E4800F0C5F910E0E2
:10041000002406E001210C4800F0B6F900B9BFE75E
:10042000641C074800688442F4D30121054800F0A9
:10043000B3F900BF00BF00BFB2E7000000100140E9
:1004400004000020000C01400008014010B50446E3
:1004500004480068204020B1024804602046FFF7AD
:1004600089FF10BD140401402DE9F847034600221E
:1004700094466EE14FF0010808FA02F4D1F80080CA
:1004800008EA0400A0427DD1DFF8DCA2D1F80480A4
:10049000A8EB0A09D0453AD014DCB8F1030F50D0CC
:1004A00009DCB8F1000F31D0B8F1010F1CD0B8F160
:1004B000020F49D120E0B8F1110F18D0B8F1120F96
:1004C00042D11EE0B9F5881F25D006DCB9F5803F82
:1004D00020D0B9F5801F37D11AE0B9F5001F18D028
:1004E000B9F5041F30D117E0D1F80CC02DE0D1F8D8
:1004F0000C8008F1040C28E0D1F80C8008F1080CFD
:1005000023E0D1F80C8008F10C0C1EE000BF00BF06
:1005100000BF00BF00BF00BFD1F80880B8F1000FD6
:1005200002D14FF0040C0BE0D1F80880B8F1010FB4
:1005300003D14FF0080C1C6102E04FF0080C5C6125
:1005400003E04FF0000C00E000BF00BFFF2801D81F
:10055000984601E003F104084646FF2802D84FEA16
:10056000820803E0A2F108084FEA88084746D6F857
:1005700000804FF00F0909FA07F928EA09080CFA78
:1005800007F900E088E048EA0908C6F80080D1F8D9
:10059000048008F08058B8F1805F7DD100BFDFF89B
:1005A000CC81D8F8188048F00108DFF8C091C9F86C
:1005B0001880C846D8F8188008F00108CDF80080E7
:1005C00000BF00BF4FEAB9384FEA920958F82950E6
:1005D0004FEA82784FEA18794FF00F0808FA09F8C5
:1005E00025EA0805DFF88881434502D14FF000086D
:1005F00016E0DFF88081434502D14FF001080FE09B
:10060000DFF87481434502D14FF0020808E0DFF8BB
:100610006C81434502D14FF0030801E04FF004081C
:100620004FEA82794FEA197908FA09F848EA05058C
:10063000DFF84C814FEA920948F82950D1F804803C
:1006400008F48038B8F5803F0AD1DFF83881D8F84F
:10065000008048EA0008DFF82C91C9F8008009E022
:10066000DFF82081D8F8008028EA0008DFF814912C
:10067000C9F80080D1F8048008F40038B8F5003FCC
:1006800010D1DFF8008108F10408D8F8008048EAAA
:100690000008DFF8F09000E05AE009F10409C9F819
:1006A00000800DE0DFF8DC8008F10408D8F8008055
:1006B00028EA0008DFF8CC9009F10409C9F80080A5
:1006C000D1F8048008F48018B8F5801F0ED1DFF847
:1006D000B48008F10808D8F8008048EA0008DFF87C
:1006E000A49009F10809C9F800800DE0DFF89480B2
:1006F00008F10808D8F8008028EA0008DFF884909C
:1007000009F10809C9F80080D1F8048008F400183C
:10071000B8F5001F0ED1DFF86C8008F10C08D8F88E
:10072000008048EA0008DFF85C9009F10C09C9F87C
:1007300000800DE0DFF84C8008F10C08D8F800804C
:1007400028EA0008DFF83C9009F10C09C9F800809C
:10075000521CD1F8008028FA02F8B8F1000F7FF49B
:1007600089AEBDE8F88700000000111000100240BB
:1007700000080140000C014000100140001401403D
:100780000800014000040140024693680B400BB191
:10079000012000E000207047C2680A400AB14161B0
:1007A00000E00161704700000148006870470000E8
:1007B00010000020034800680349097808440149F3
:1007C00008607047100000201800002010B508488D
:1007D000006840F0100006490860032000F080F82F
:1007E0000F2000F007F800F02BF8002010BD0000EB
:1007F0000020024070B504460E4800784FF47A712C
:10080000B1FBF0F00C490968B1FBF0F5284600F0A7
:10081000E3FB08B1012070BD102C07D20022214655
:10082000501E00F01EF80548046001E00120F2E7C8
:100830000020F0E7180000201C0000201400002019
:10084000704701460846002809DB00F01F0301221B
:100850009A4043099B0003F1E023C3F8002100BF45
:1008600070472DE9F05F80460D461646002700F0E0
:10087000FFFF074639462A46334601F00700C0F11C
:10088000070ABAF1040F02D94FF0040A01E0C0F1DF
:10089000070AD14600F1040ABAF1070F02D24FF05D
:1008A000000A01E0A0F1030AD4464FF0010A0AFA57
:1008B00009FAAAF1010A0AEA020A0AFA0CFA4FF046
:1008C000010B0BFA0CFBABF1010B0BEA030B4AEA31
:1008D0000B042146404600F0D3FFBDE8F09F000026
:1008E00000BF00F00702064B19684FF6FF031940DE
:1008F000044B0B4343EA0221014B196000BF7047D0
:100900000CED00E00000FA0570B504460D460CB988
:10091000012070BD5A48006800F00700A8420ED2BE
:100920005748006820F007002843554908600846EA
:10093000006800F00700A84201D00120E9E7207814
:1009400000F0020002281DD1207800F004000428E5
:1009500005D14C48406840F4E0604A49486020783E
:1009600000F00800082805D14648406840F460506F
:10097000444948604348406820F0F000A1680843BB
:1009800040494860207800F0010078B36068012891
:1009900006D13C48006800F4003090B90120B8E767
:1009A0006068022806D13748006800F0007040B93E
:1009B0000120AEE73348006800F0020008B90120CA
:1009C000A7E73048406820F00300616808432D49DC
:1009D0004860FFF7E9FE064609E0FFF7E5FE801BE9
:1009E00041F28831884202D9032092E707E0254886
:1009F000406800F00C006168B0EB810FEDD1204839
:100A0000006800F00700A8420ED91D48006820F0D9
:100A1000070028431A4908600846006800F00700EC
:100A2000A84201D0012074E7207800F004000428D7
:100A300007D11448406820F4E060E1680843114998
:100A40004860207800F00800082808D10D48406868
:100A500020F46050216940EAC1000A49486000F072
:100A60003FF808494968C1F30311074A515CC8407F
:100A70000649086006480068FFF7BCFE002048E70A
:100A80000020024000100240E01800081C00002076
:100A90001400002001480068704700001C0000207E
:100AA00000B5FFF7F7FF04494968C1F30221034A83
:100AB000515CC84000BD000000100240F018000862
:100AC00000B5FFF7E7FF04494968C1F3C221034AB3
:100AD000515CC84000BD000000100240F018000842
:100AE000F0B585B00FF26C0C9CE8E01001A8A0E80E
:100AF000E0101CA52D680095002100220023002491
:100B00000020194D696801F00C05F5B1042D02D0E3
:100B1000082D19D101E0154819E001ADC1F3834654
:100B2000AC5D01F4803555B10F4D6D68C5F340459E
:100B30001DF805200D4D6543B5FBF2F302E00C4DA9
:100B400004FB05F3184602E000BF084800BF00BFE1
:100B500005B0F0BD02030405060708090A0B0C0DD9
:100B60000E0F1010010200000010024000127A0067
:100B700000093D00F8B504460CB90120F8BD207805
:100B800000F00100002878D0F848406800F00C0020
:100B900004280CD0F548406800F00C00082811D15A
:100BA000F248406800F48030B0F5803F0AD1EF4849
:100BB000006800F4003000285FD0606800285CD135
:100BC0000120DBE700BF6068B0F5803F06D1E74851
:100BD000006840F48030E549086028E0606858B952
:100BE000E248006820F48030E04908600846006868
:100BF00020F4802008601AE06068B0F5A02F0BD1C7
:100C0000DA48006840F48020D84908600846006847
:100C100040F4803008600AE0D448006820F4803056
:100C2000D24908600846006820F48020086000BFB0
:100C3000606888B1FFF7B8FD054606E0FFF7B4FD30
:100C4000401B642801D9032098E7C848006800F4D5
:100C500000300028F2D010E0FFF7A6FD054606E0C0
:100C6000FFF7A2FD401B642801D9032086E7BF4897
:100C7000006800F400300028F2D1207800F0020073
:100C8000022857D1B948406800F00C0050B1B7486D
:100C9000406800F00C00082818D1B448406800F4FF
:100CA000803098B9B148006800F0020020B1206996
:100CB000012801D0012061E7AC48006820F0F8006D
:100CC000616940EAC100A949086033E02069E8B1E0
:100CD0000120A7490860FFF767FD054606E0FFF71A
:100CE00063FD401B022801D9032047E79F480068A5
:100CF00000F002000028F2D09C48006820F0F800C4
:100D0000616940EAC1009949086013E000209849F0
:100D10000860FFF749FD054606E0FFF745FD401B6B
:100D2000022801D9032029E79048006800F002005A
:100D30000028F2D1207800F0080008282DD1A06901
:100D4000B8B101208B490860FFF72EFD054606E08B
:100D5000FFF72AFD401B022801D903200EE7834834
:100D6000406A00F002000028F2D0012000F06EFB83
:100D700013E000207F490860FFF716FD054606E0F6
:100D8000FFF712FD401B022801D90320F6E6774841
:100D9000406A00F002000028F2D1207800F0040040
:100DA000042873D100277148C06900F0805070B9E1
:100DB00000BF6E48C06940F080506C49C861084669
:100DC000C06900F08050009000BF00BF01276A4852
:100DD000006800F48070B0B96748006840F4807023
:100DE00065490860FFF7E0FC054606E0FFF7DCFC1C
:100DF000401B642801D90320C0E65F48006800F466
:100E000080700028F2D000BFE068012806D1574862
:100E1000006A40F001005549086227E0E06858B9CF
:100E20005248006A20F00100504908620846006AF2
:100E300020F00400086219E0E06805280BD14B4857
:100E4000006A40F00400494908620846006A40F020
:100E5000010008620AE04548006A20F001004349A9
:100E600008620846006A20F00400086200BFE068DB
:100E7000A0B1FFF799FC054609E0FFF795FC401B80
:100E800041F28831884202D9032077E622E03748D0
:100E9000006A00F002000028EFD012E0FFF784FCA7
:100EA000054608E0FFF780FC401B41F2883188428C
:100EB00001D9032062E62D48006A00F002000028F4
:100EC000F0D1012F05D12948C06920F08050274971
:100ED000C86100BFE069C8B32448406800F00C0056
:100EE000082860D0E069022848D10020204908661F
:100EF000FFF75AFC054606E0FFF756FC401B0228A8
:100F000001D903203AE61948006800F00070002873
:100F1000F2D1206AB0F5803F07D11448406820F430
:100F20000030A168084311494860D4E9080108432A
:100F30000E49496821F4741108430C4948600120A6
:100F40000B490866FFF730FC054607E03DE0FFF778
:100F50002BFC401B022801D903200FE60348006840
:100F600000F000700028F2D02FE0000000100240D6
:100F700000004242800442420070004000201449B8
:100F80000866FFF711FC054606E0FFF70DFC401B65
:100F9000022801D90320F1E50E48006800F0007036
:100FA0000028F2D111E0E069012800D1E6E5094806
:100FB000466806F48031206A814204D106F470113B
:100FC000606A814201D00120D8E50020D6E500000A
:100FD000000042420010024070B504462546681EDB
:100FE000B0F1807F01D301200FE0681E4FF0E021B7
:100FF00048610F214FF0FF3000F042FC00204FF01D
:10100000E021886107200861002070BD7047000062
:101010002DE9F0470446206805682068C668206806
:1010200047694FF00008C14605F00F08B8F1000FFE
:101030000AD105F0200038B106F0200020B120468A
:1010400000F0B4FABDE8F087B8F1000F6DD007F0FA
:10105000010018B906F49070002866D005F0010070
:1010600030B106F4807018B1E06B40F00100E0632D
:1010700005F0040030B107F0010018B1E06B40F05A
:101080000200E06305F0020030B107F0010018B182
:10109000E06B40F00400E06305F0080030B107F0B9
:1010A000010018B1E06B40F00800E063E06B68B34A
:1010B00005F0200028B106F0200010B1204600F015
:1010C00075FA20684069C0F38019E06B00F00800F1
:1010D00010B9B9F1000F22D0204600F047FA20687D
:1010E000406900F04000B0B12068406920F0400045
:1010F00021684861606B50B11748616B4863606B51
:10110000FFF7E0F810B1606B416B88470CE02046B8
:10111000FFF77CFF08E02046FFF778FF04E0204659
:10112000FFF774FF0020E0638CE705F0800030B12A
:1011300006F0800018B1204600F05CFB82E705F065
:10114000400030B106F0400018B1204600F01EFA11
:1011500078E700BF76E700005915000810B504468F
:101160000CB9012010BDA06900B100E000BF94F8E7
:10117000390028B9002084F83800204600F028F80B
:10118000242084F839002068C06820F400502168C9
:10119000C860204600F05EFA2068006920F49040A4
:1011A000216808612068406920F02A0021684861B0
:1011B0002068C06840F400502168C8600020E063E7
:1011C000202084F8390084F83A000020CAE70000A3
:1011D00010B586B0044652492068884237D100BF16
:1011E0005048806940F004004E4988610846806993
:1011F00000F00400019000BF00BF00BF08468069F6
:1012000040F4804088610846806900F48040019085
:1012100000BF00BF481502900220039001200590F6
:1012200002A94148FFF720F94FF4806002900020A6
:101230000390049002A93C48FFF716F9002203210D
:101240002520FFF70EFB2520FFF7FBFA65E0374965
:10125000206888422ED100BF3248806940F00400E7
:10126000304988610846806900F00400019000BFA1
:1012700000BF00BF0846C06940F40030C86108469E
:10128000C06900F40030019000BF00BF042002904C
:10129000022003900120059002A92348FFF7E4F8FB
:1012A0000820029000200390049002A91E48FFF736
:1012B000DBF832E01E49206888422ED100BF194871
:1012C000806940F00800174988610846806900F08D
:1012D0000800019000BF00BF00BF0846C06940F48D
:1012E0008020C8610846C06900F48020019000BFDA
:1012F00000BF08150290022003900120059002A96A
:101300000C48FFF7B1F84FF4006002900020039002
:10131000049002A90748FFF7A7F806B010BD000027
:101320000038014000100240000801400044004025
:1013300000480040000C014010B5034693F83A0005
:1013400020282FD101B10AB9012010BD00BF93F8A8
:101350003800012801D10220F7E7012083F8380086
:1013600000BF99629A85DA850020D863222083F82D
:101370003A0000BF002083F8380000BF1868C0683A
:1013800040F480701C68E0601868406940F001001B
:101390001C6860611868C06840F020001C68E0604C
:1013A0000020D2E70220D0E710B5044608492068A3
:1013B00088420CD1142207490748FEF705FF012097
:1013C00006490870142203490548FFF7B5FF10BD10
:1013D00000380140E0000020200100200C00002027
:1013E0002000002010B5034693F83900202823D1AF
:1013F00001B10AB9012010BD00BF93F838000128DF
:1014000001D10220F7E7012083F8380000BF1962FC
:101410009A84DA840020D863212083F8390000BF41
:10142000002083F8380000BF1868C06840F08000D2
:101430001C68E0600020DEE70220DCE7704700BFA8
:10144000FEE700BFFEE770477047000008B5084997
:101450000968C9084FF47A72B1FBF2F14143009177
:1014600000BF00BF00994A1E00920029F9D108BDB3
:101470001C00002000B58FB00120059000040690EC
:101480000020079002200C90C1030D914FF4E01151
:101490000E9105A8FFF76EFB0F200090022001902F
:1014A000002002904FF480600390002004900221FD
:1014B0006846FFF729FA0FB000BD704710B5FFF777
:1014C00079F910BD1148006840F001000F4908602B
:1014D000084640680E4908400C49486008460068C4
:1014E0000C490840094908600846006820F480203B
:1014F00008600846406820F4FE0048604FF41F0072
:101500008860C8030449086070470000001002406A
:101510000000FFF8FFFFF6FE08ED00E010B50446FE
:101520000A480B4908600846446000218160C16098
:1015300001610C21416100218161FFF70FFE14223E
:1015400004490348FFF7F8FE10BD000000380140D1
:1015500020000020E000002070B505466C6A0020E5
:10156000E085E0842046FFF751FD70BD0168C96841
:1015700021F490710268D1600168496921F001018C
:1015800002685161202180F83A10704710B5044676
:101590002068C06820F040002168C860202084F8DE
:1015A00039002046FFF74AFF002010BD70B5044601
:1015B00094F83A0022284AD1A068B0F5805F13D190
:1015C000A56A206940B920684068C0F308002880F7
:1015D000A06A801CA06219E020684068C0B2288020
:1015E000A06A401CA06211E0206938B920684068F8
:1015F000C1B2A26A501CA062117007E02068406866
:1016000000F07F01A26A501CA0621170E08D401EA4
:1016100080B2E085C8B92068C06820F02000216849
:10162000C8602068C06820F480702168C8602068A5
:10163000406920F0010021684861202084F83A00C8
:101640002046FFF7B1FE002070BD0020FCE702201D
:10165000FAE7000070B504462168096921F4405199
:10166000E2681143226811612269A168114362692D
:1016700041EA02052168C96841F20C62914329439D
:101680002268D1602168496921F44071A26911433F
:1016900022685161564A2168914254D1FFF710FAED
:1016A00000EBC00101EB001162689200B1FBF2F1A6
:1016B00000EBC00202EB001263689B00B2FBF3F286
:1016C0006423B2FBF3F202EBC20303EB0212A1EBC1
:1016D0008201322202EB01116422B1FBF2F101F02E
:1016E000F00100EBC00202EB001263689B00B2FB4A
:1016F000F3F26423B2FBF3F201EB021200EBC00140
:1017000001EB001163689B00B1FBF3F100EBC00338
:1017100003EB00136668B600B3FBF6F36426B3FB75
:10172000F6F303EBC30606EB0313A1EB83013223AD
:1017300003EB01116423B1FBF3F101F00F0111443C
:101740002268916053E0FFF7ABF900EBC00101EBB9
:10175000001162689200B1FBF2F100EBC00202EBF3
:10176000001263689B00B2FBF3F26423B2FBF3F256
:1017700002EBC20303EB0212A1EB8201322202EB65
:1017800001116422B1FBF2F101F0F00100EBC002A3
:1017900002EB001263689B00B2FBF3F26423B2FB1E
:1017A000F3F201EB021200EBC00101EB00116368E0
:1017B0009B00B1FBF3F100EBC00303EB0013666881
:1017C000B600B3FBF6F36426B3FBF6F303EBC306F4
:1017D00006EB0313A1EB8301322303EB0111642316
:1017E000B1FBF3F101F00F0111442268916070BD6B
:1017F00000380140014691F8390021282CD1886831
:10180000B0F5805F0FD10A6A1088C0F308000B683A
:101810005860086918B9086A801C086209E0086AFB
:10182000401C086205E00B6A581C086218780B68B7
:101830005860C88C401E80B2C88458B90868C06817
:1018400020F080000B68D8600868C06840F0400055
:101850000B68D860002070470220FCE710B50248F2
:10186000FFF7D6FB10BD00002000002000BFFEE700
:1018700002480068C0F30220704700000CED00E051
:1018800010B5002804DB0A07130E054A135406E0BE
:101890000A07140E034A00F00F031B1FD45410BD97
:1018A00000E400E018ED00E0FEF790FFFFF7E2FD36
:1018B0004FF46120FFF732FE0BE006480078012864
:1018C00007D1002003490870142203490348FFF799
:1018D00089FDF2E70C0000202001002020000020FC
:1018E00000000000000000000102030406070809D0
:1018F0000000000001020304181900080000002085
:1019000020000000280100083819000820000020ED
:10191000A00700004401000800000000FF7F000055
:10192000FF7F000000000000000000001000000029
:08193000010000000024F40096
:04000005080000ED02
:00000001FF
