:020000040800F2
:1000000070060020890100083D0700083507000838
:100010003907000843020008A50700080000000097
:100020000000000000000000000000004107000880
:1000300047020008000000003F07000843070008CF
:10004000A3010008A3010008A3010008A301000800
:10005000A3010008A3010008A3010008A3010008F0
:10006000A3010008A3010008A3010008A3010008E0
:10007000A3010008A3010008A3010008A3010008D0
:10008000A3010008A3010008A3010008A3010008C0
:10009000A3010008A3010008A3010008A3010008B0
:1000A000A3010008A3010008A3010008A3010008A0
:1000B000A3010008A3010008A3010008A301000890
:1000C000A3010008A3010008A3010008A301000880
:1000D000A3010008A3010008A3010008A301000870
:1000E000A3010008A3010008A301000800F002F822
:1000F00000F03AF80AA090E8000C82448344AAF188
:100100000107DA4501D100F02FF8AFF2090EBAE885
:100110000F0013F0010F18BFFB1A43F0010318473B
:10012000D8060000F8060000103A24BF78C878C14D
:10013000FAD8520724BF30C830C144BF04680C60ED
:10014000704700000023002400250026103A28BF35
:1001500078C1FBD8520728BF30C148BF0B60704739
:100160001FB51FBD10B510BD00F031F81146FFF7E7
:10017000F7FF00F035FB00F04FF803B4FFF7F2FF94
:1001800003BC00F057F800000948804709480047C1
:10019000FEE7FEE7FEE7FEE7FEE7FEE7FEE7FEE737
:1001A000FEE7FEE704480549054A064B7047000094
:1001B0004D070008ED0000087000002070060020C8
:1001C000700200207002002070477047704775462B
:1001D00000F02CF8AE4605006946534620F00700B3
:1001E000854618B020B5FFF7DDFFBDE820404FF091
:1001F00000064FF000074FF000084FF0000B21F011
:100200000701AC46ACE8C009ACE8C009ACE8C009DD
:10021000ACE8C0098D46704710B50446AFF30080C6
:100220002046BDE81040FFF7A8BF00000048704717
:100230001000002001491820ABBEFEE72600020096
:10024000704700BFFEE770472DE9F84703460022DC
:1002500094466EE14FF0010808FA02F4D1F80080EC
:1002600008EA0400A0427DD1DFF8DCA2D1F80480C6
:10027000A8EB0A09D0453AD014DCB8F1030F50D0EE
:1002800009DCB8F1000F31D0B8F1010F1CD0B8F182
:10029000020F49D120E0B8F1110F18D0B8F1120FB8
:1002A00042D11EE0B9F5881F25D006DCB9F5803FA4
:1002B00020D0B9F5801F37D11AE0B9F5001F18D04A
:1002C000B9F5041F30D117E0D1F80CC02DE0D1F8FA
:1002D0000C8008F1040C28E0D1F80C8008F1080C1F
:1002E00023E0D1F80C8008F10C0C1EE000BF00BF29
:1002F00000BF00BF00BF00BFD1F80880B8F1000FF9
:1003000002D14FF0040C0BE0D1F80880B8F1010FD6
:1003100003D14FF0080C1C6102E04FF0080C5C6147
:1003200003E04FF0000C00E000BF00BFFF2801D841
:10033000984601E003F104084646FF2802D84FEA38
:10034000820803E0A2F108084FEA88084746D6F879
:1003500000804FF00F0909FA07F928EA09080CFA9A
:1003600007F900E088E048EA0908C6F80080D1F8FB
:10037000048008F08058B8F1805F7DD100BFDFF8BD
:10038000CC81D8F8188048F00108DFF8C091C9F88E
:100390001880C846D8F8188008F00108CDF8008009
:1003A00000BF00BF4FEAB9384FEA920958F8295008
:1003B0004FEA82784FEA18794FF00F0808FA09F8E7
:1003C00025EA0805DFF88881434502D14FF000088F
:1003D00016E0DFF88081434502D14FF001080FE0BD
:1003E000DFF87481434502D14FF0020808E0DFF8DE
:1003F0006C81434502D14FF0030801E04FF004083F
:100400004FEA82794FEA197908FA09F848EA0505AE
:10041000DFF84C814FEA920948F82950D1F804805E
:1004200008F48038B8F5803F0AD1DFF83881D8F871
:10043000008048EA0008DFF82C91C9F8008009E044
:10044000DFF82081D8F8008028EA0008DFF814914E
:10045000C9F80080D1F8048008F40038B8F5003FEE
:1004600010D1DFF8008108F10408D8F8008048EACC
:100470000008DFF8F09000E05AE009F10409C9F83B
:1004800000800DE0DFF8DC8008F10408D8F8008077
:1004900028EA0008DFF8CC9009F10409C9F80080C7
:1004A000D1F8048008F48018B8F5801F0ED1DFF869
:1004B000B48008F10808D8F8008048EA0008DFF89E
:1004C000A49009F10809C9F800800DE0DFF89480D4
:1004D00008F10808D8F8008028EA0008DFF88490BE
:1004E00009F10809C9F80080D1F8048008F400185F
:1004F000B8F5001F0ED1DFF86C8008F10C08D8F8B1
:10050000008048EA0008DFF85C9009F10C09C9F89E
:1005100000800DE0DFF84C8008F10C08D8F800806E
:1005200028EA0008DFF83C9009F10C09C9F80080BE
:10053000521CD1F8008028FA02F8B8F1000F7FF4BD
:1005400089AEBDE8F88700000000111000100240DD
:1005500000080140000C014000100140001401405F
:10056000080001400004014003480068034909787D
:10057000084401490860704700000020080000207E
:1005800010B50848006840F01000064908600320D4
:1005900000F070F80F2000F007F800F02BF80020B2
:1005A00010BD00000020024070B504460E480078DF
:1005B0004FF47A71B1FBF0F00C490968B1FBF0F52A
:1005C000284600F09DF808B1012070BD102C07D21C
:1005D00000222146501E00F00EF80548046001E09C
:1005E0000120F2E70020F0E7080000200C000020C6
:1005F0000400002070472DE9F05F80460D46164646
:10060000002700F0D1F8074639462A46334601F064
:100610000700C0F1070ABAF1040F02D94FF0040A2B
:1006200001E0C0F1070AD14600F1040ABAF1070F50
:1006300002D24FF0000A01E0A0F1030AD4464FF0C5
:10064000010A0AFA09FAAAF1010A0AEA020A0AFAEE
:100650000CFA4FF0010B0BFA0CFBABF1010B0BEAA0
:10066000030B4AEA0B042146404600F0A5F8BDE81A
:10067000F09F000000BF00F00702064B19684FF61C
:10068000FF031940044B0B4343EA0221014B19605D
:1006900000BF70470CED00E00000FA0570B586B0B1
:1006A00005460C46164600200290039004900590E3
:1006B0000220039003200590002004904FF48070E6
:1006C000029000BF0C48806940F004000A4988612C
:1006D0000846806900F00400019000BF00BF02A935
:1006E0000648FFF7B1FD0448406820F0E060204371
:1006F0000149486006B070BD00100240000801408A
:1007000070B504462546681EB0F1807F01D30120F4
:100710000FE0681E4FF0E02148610F214FF0FF30DD
:1007200000F04AF800204FF0E021886107200861BE
:10073000002070BD00BFFEE700BFFEE770477047B6
:10074000704710B5FFF710FF10BD0000114800689A
:1007500040F001000F490860084640680E49084013
:100760000C494860084600680C490840094908607F
:100770000846006820F4802008600846406820F49D
:10078000FE0048604FF41F008860C80304490860F9
:1007900070470000001002400000FFF8FFFFF6FE67
:1007A00008ED00E000BFFEE702480068C0F3022049
:1007B000704700000CED00E010B5002804DB0A07CC
:1007C000130E054A135406E00A07140E034A00F0FC
:1007D0000F031B1FD45410BD00E400E018ED00E02F
:1007E00010B5FFF7CDFE00224FF080611046FFF7F5
:1007F00055FF002010BD0000180800080000002070
:10080000100000002801000828080008100000203F
:100810006006000044010008000000001000000015
:08082000010000000024F400B7
:04000005080000ED02
:00000001FF
