:020000040800F2
:1000000088070020350200082B3000082330000844
:1000100027300008331B0008753600080000000078
:100020000000000000000000000000009F300008F9
:10003000851B0008000000002D300008A1300008DA
:100040004F0200084F0200084F0200084F0200084C
:100050004F0200084F020008871B00084F020008EB
:100060004F0200084F0200084F0200084F0200082C
:100070004F0200084F020008391B0008491B000806
:100080004F0200084F0200084F0200084F0200080C
:100090004F0200084F0200084F0200084F020008FC
:1000A0004F0200084F0200084F0200084F020008EC
:1000B0004F0200084F0200084F0200084F020008DC
:1000C0004F0200084F0200084F0200084F020008CC
:1000D0004F020008393600084F0200084F0200089E
:1000E000911B00084F0200084F02000800F002F8C0
:1000F00000F090F80AA090E8000C82448344AAF132
:100100000107DA4501D100F085F8AFF2090EBAE82F
:100110000F0013F0010F18BFFB1A43F0010318473B
:10012000CC370000EC370000103A24BF78C878C103
:10013000FAD8520724BF30C830C144BF04680C60ED
:10014000704700000023002400250026103A28BF35
:1001500078C1FBD8520728BF30C148BF0B60704739
:100160006E2900F05981702900F09B82662903F006
:100170002F83652903F02C83672903F029836129E4
:1001800003F0288303681B0A28BF41F08001692916
:1001900000F00681642900F00381752900F00081D8
:1001A0006F2900F02882782900F06782E92900F0A1
:1001B000C381E42900F0C081F52900F0BD81EF2959
:1001C00000F02582F82900F066820368DB0928BF69
:1001D00041F08001632900F06987732900F06E8780
:1001E000E32900F07987F32900F07E87002070472B
:1001F0001FB500F0CBFF04000020002103F0D2FA6D
:10020000401C60600020002103F0B6FAE0601FBDD2
:1002100010B510BD00F08CFF1146FFF7E9FF03F0A9
:1002200063FA01F069F803B4FFF7F2FF03BC01F0D1
:10023000B1F800000948804709480047FEE7FEE79B
:10024000FEE7FEE7FEE7FEE7FEE7FEE7FEE7FEE786
:1002500004480549054A064B70470000A9300008CC
:10026000ED00000888010020880700208803002096
:10027000880300201CB50C46064B7B446946009061
:10028000204600F0E2F804460020694600F0F0F84D
:1002900020461CBDF301000010B5431C02E010F81D
:1002A000011B71B18107FAD14FF0013202C88C1ADB
:1002B0008C4314EAC211F9D0C01A0A0603D0C01E3A
:1002C00010BDC01A10BD0A0401D0801E10BD090265
:1002D000FCD0401E10BD70477047704770B5044693
:1002E00085690068C10601D5302600E02026C007D8
:1002F00007D070BDD4E9012130469047206A401CE8
:1003000020626D1EF6D570BD70B504468569007813
:10031000C00707D170BDD4E9012120209047206A91
:10032000401C20626D1EF6D570BD09684A0501D5D6
:1003300040B27047C905FCD500B2704709684A054C
:1003400001D5C0B27047C905FCD580B2704770B501
:100350000C460546012A05D02878800600D5EA69B2
:10036000002302E0012305E05B1C934202D2E05C23
:100370000028F9D1A869E618C01AA861286A1844AB
:1003800028622846FFF7AAFF04E0D5E9012114F806
:10039000010B9047B442F8D32846FFF7B5FF70BD74
:1003A0002DE9F0410646002410687529314616A54E
:1003B00010D0FFF7BAFF002802DA404213A507E089
:1003C00031688A0701D512A502E0490704D511A5B5
:1003D000012401E0FFF7B2FF00210A2206F1240701
:1003E00009E0B0FBF2FCB0FBF2F302FB1C00303082
:1003F00078541846491C0028F3D123462A46304633
:10040000BDE8F04100F061BA000000002D000000DE
:100410002B0000002000000011680268006A5305EC
:1004200001D508700AE0D30501D5088006E013065F
:1004300003D5C217C1E9000200E00860012070473F
:1004400001694A1C02610878704700B58FB0CDE998
:1004500001310021059105497944CDE90310114688
:10046000684600F029F90FB000BD0000E5FFFFFF6E
:100470000A6802F8010B0A60704700002DE9FF5F6F
:1004800015468A460446DFF8AC80F8440027D8E9D0
:1004900000103E46CDE9001010E03AF816106A460A
:1004A00002A800F025FE411C07D02178890603D55B
:1004B000E269391891420DD80744761C20788006ED
:1004C00002D5E069B84205DDAE42E6DB3AF8160037
:1004D0000028E2D1A069C01BA0612046FFF7FEFE04
:1004E000D8E90010CDE90010002017E03AF8181004
:1004F0006A4602A800F0FCFDB0F1FF3F81460BD038
:1005000000250DF1080B05E0D4E901211BF80500D9
:1005100090476D1C4D45F7D308F10100B04280466D
:10052000E4DB206A384420622046FFF7EDFEBDE898
:10053000FF9F0000623300002DE9F0418046D21D8C
:1005400022F007020025D2E90002F52915A614D0F1
:10055000011E72F1000106DA0023D0EB030063EB09
:10056000020211A608E0D8F800108B0701D50FA6EB
:1005700002E0490701D50EA601251146002408F125
:10058000240704E000F05CF930323A55641C50EA6C
:100590000102F7D12B46324621464046BDE8F041E4
:1005A00000F093B9000000002D0000002B000000B7
:1005B0002000000030B4002100F1240408E002F023
:1005C0000705D208303542EA4372DB086554491CFE
:1005D00052EA0305F3D10468002310A2250707D5CA
:1005E000A40600D421B1C46901230DA2641EC46114
:1005F00030BC00F06AB910B5044621461068FFF718
:100600009DFE02462046BDE810400023D2E7D21DE1
:1006100022F00701D1E90023CCE700000000000030
:1006200030000000F0B40D460188090502D5214CC8
:100630007C4402E01F4C7C440E34002100F124066F
:1006400008E002F00F071209E75D42EA03721B0996
:100650007754491C52EA0307F3D1027800231207AA
:1006600004D5702D06D009B1022311342246F0BC06
:1006700000F02BB901231034F8E770B504460D469D
:1006800021461068FFF75AFE024629462046BDE87B
:1006900070400023C6E7D21D22F00703D3E90023F0
:1006A000C0E70368126843F0200303600823C361B6
:1006B0000023B7E7C43100002DE9F05F8946044606
:1006C0004FF0000ADFF874B1FB44C0F820A02046C8
:1006D000E1688847002874D0252806D0D4E9012194
:1006E0009047206A401C2062F1E700265F462046C2
:1006F000E16888472028054607DB312D05D27819A7
:1007000010F8200C08B10643F1E7B00701D526F038
:100710000406C4F81CA00027C4F818A02A2D09D08C
:10072000284602F0D9FF38B304EB8708303DC8F8FB
:10073000185019E059F8041B204604EB8702916118
:10074000E1688847012F054618D1E069002820DAC2
:1007500026F020061DE0D8F8180000EB800005EB1D
:1007600040003038C8F818002046E1688847054640
:1007700002F0B2FF0028EED1012F0AD02E2D08D1B1
:100780002046E16888477F1C0546022F46F0200678
:10079000C4DBA069002803DA404246F00106A061EC
:1007A000F00701D026F010066C2D0BD0682D09D073
:1007B0004C2D39D06A2D35D0742D35D07A2D33D0CB
:1007C00016E038E0E1682F4620468847B8420546E3
:1007D00009D16C2F26D04FF48060E1680643204693
:1007E0008847054604E06C2F1AD04FF4807006430A
:1007F0000DB3A5F14100192802D8203546F4006652
:100800004A462946204626604E46FFF7A9FC80B19D
:1008100001280BD0F61D26F0070000F1080956E765
:100820004020E4E78020D8E70020D6E706F104095D
:100830004DE7284652E7206ABDE8F09F543100009A
:1008400030B5B0F10A024FEA900E71F100034EEAA2
:10085000817EB0EB0E0061EB91014FEA101E4EEA73
:10086000017E10EB0E0041EB11114FEA102E4EEA03
:10087000016E10EB0E0041EB11214FEA104E4EEAD3
:10088000014E10EB0E0041EB1141401841F1000107
:100890004FEAD00040EA41704FEAD10110EB8005E9
:1008A0004FEA810444EA907444EB01046D1944EB6F
:1008B0000404521BA3414FF0000348BF0A3200D585
:1008C00030BD401C41F1000130BD2DE9F0470D461F
:1008D00099469246044600F124080168880604D52A
:1008E000E06921F01001216000E00120A84201DD53
:1008F000471B00E00027A1697A1902EB0900081ADA
:10090000A0612078C00602D42046FFF7E7FC00264D
:1009100008E0D4E901211AF806009047206A401C3B
:10092000761C20624E45F4DB2078C0060AD52046AE
:10093000FFF7D4FC06E0D4E9012130209047206A7B
:10094000401C2062381EA7F10107F4DC07E0D4E95F
:10095000012118F805009047206A401C2062281EDB
:10096000A5F10105F3DC2046FFF7CEFC2078000658
:1009700002D50220BDE8F0870120FBE770472DE992
:10098000FF4F0C461E464FF0FF378BB0D2E90001F7
:10099000DDF860800A908A46C1F30A5505B93D46E4
:1009A000002108464FF00000BAF1000F00F44000AB
:1009B00005DA00EB80004FF4400101EA50004FEAF5
:1009C0009059B9F1010F00DDB9460A9850EA4A0082
:1009D0000ED044F61050A5F2FF3545432F14B8F160
:1009E000000F1ED07542291E1EDDC9F100021CE059
:1009F000B8F1010F4FF0000001D0302103E0F243C5
:100A000005E02154401CB042FBDB304600220021AF
:100A100021540B99C1F80880C1E900200FB0BDE84E
:100A2000F08FBD1B6D1CDEE74A4600DA694206A85E
:100A300000F0F0FB06AB93E8070003AB83E8070088
:100A400050460A9900F0ADFC8DE80700A0F5005073
:100A50001F3800900398002D0ADD42F21F014A461C
:100A60000844002303A90390684600F016FF09E03C
:100A7000A0F500504A461F38002303A9039068469A
:100A800000F020FF8DE807000004000C03D04FF0B9
:100A9000FF30410800E01046B8F1000F03D00022FB
:100AA000009215461EE0751E05D4FFF7C9FE3032D0
:100AB00062556D1EF9D5B3460122084302D00022CB
:100AC0007F1C04E02078302801D100227F1E002AFC
:100AD000099784D01DE0112D07DAFFF7B1FE3032FF
:100AE00062556D1C50EA0102F5D1084302D000980E
:100AF000C8B10EE00021681E05E0235C625C63540F
:100B00002254401E491C8142F7DBAB46A81B401E05
:100B10000990002004F80B000B98099AC0F808808F
:100B2000C0E9002B7AE711264FF0000857E72DE9BE
:100B3000F04F88460446D21D22F0070191B0D1E95A
:100B40000001CDE90A0102F097FD02460B98C00FA3
:100B500001D02D2007E02068810701D52B2002E07D
:100B6000202101EAC000032A099001D0072A05DBF1
:100B700003464146204600F00DFB0BE1207880063D
:100B800001D5E06900E00620B8F1650F814606D086
:100B9000B8F1660F18D0B8F1670F70D131E00020BE
:100BA000B9F1110F009001DB112301E009F10103FC
:100BB0000AAA01A90CA8FFF7E2FEDDE90C700026E5
:100BC00009F10105834647E001204B4600904FF0B4
:100BD00000470AAA01A90CA8FFF7D1FEDDE90DB074
:100BE0000C995D46002610B909F101000D18B9EB0A
:100BF000050003D4C0F1FF3609F10105A5EB09009A
:100C00002BE0B9F1010F01DA4FF001090020B9F131
:100C1000110F0090484601DD112300E003460AAAA7
:100C200001A90CA8FFF7ABFEDDE90C704D460026CC
:100C30008346207800070AD4AB4500DA5D4601A858
:100C4000012D04DD411911F8011C302907D04F4551
:100C500002DA17F1040F04DA012082460FE06D1E5C
:100C6000EEE7002F02DCED1B3E4403E0781CA842B7
:100C700000DD7D1CB81B00F1010A4FF00047207811
:100C8000000703D4AA4501DB4FF0FF3A0021B7F17A
:100C9000004F0DF143088DF8431024D002202B2380
:100CA000002F01DA7F422D230A21021EA0F101004C
:100CB00000DC5FB197FBF1FC97FBF1F201FB1C7CC0
:100CC00017460CF1300C08F801CDEEE7A8F1010051
:100CD00003702188090501D5452100E06521A0F1B7
:100CE000010800F8011C09980FA9A1EB0807FF1DD6
:100CF00000B10120411901EBEA70A1693844081ADA
:100D0000401EA0612078C00602D42046FFF7E6FA14
:100D1000099828B1D4E901219047206A401C20623B
:100D20002078C00622D52046FFF7D8FA1EE0002E14
:100D300004DBB34502DD01A8805D00E03020D4E98A
:100D400001219047206A401C2062761CAAF1010014
:100D50005FEA000A0AD100F019FAC0680168405C35
:100D6000D4E901219047206A401C2062281EA5F189
:100D70000105DCDC07E0D4E9012118F8010B9047FC
:100D8000206A401C2062381EA7F10107F3DC2046D0
:100D9000FFF7BAFA032011B041E600002DE9F04F49
:100DA00004460D46D21D22F0070089B0D0E9009715
:100DB0004846394602F060FC0246F80F01D02D2368
:100DC00007E02068810701D52B2302E0202101EAFA
:100DD000C0038DF820300BB1012000E00020032A71
:100DE000824601D0072A04DB2946204600F0D2F9CA
:100DF0003FE12078800601D40D2500E0E569C7F3C6
:100E00000A560D2D49DA00214FEA175B08464FF0CC
:100E10000000002F00F4400007DA00EB80004FF4E0
:100E2000400100EBD07001EA60008115012901DD6D
:100E30004FF0FF3100224FEA850CBCF1180F06D3AA
:100E40001346ACF118004FF08052C24003E04FF45B
:100E5000801323FA0CF30CF10C0CBCF1200F04D31B
:100E6000ACF1200C09FA0CF001E007FA0CF00029B3
:100E70004FF0004801DD18B90FE00ED140450CD30A
:100E800019EB02095F4121B9404502D19F4329EA8C
:100E90000209BBEB175F00D0761C2088000502D545
:100EA0007B48784402E07A487844193808AA30230D
:100EB00002F80A30037C0AF10101002E0AF1020A4D
:100EC00053546A4602DC4FF0300101E04FF031012B
:100ED0004FF001088DF8001002D0A6F2FF3603E0B3
:100EE00059EA470100D06B4E002D02DC217809073A
:100EF00004D54FF002082E218DF80110C4460021C0
:100F00000BE0C7F303433F01C35C491C6D1E02F8AD
:100F10000830052908F1010801DA002DF1DC002173
:100F20000CE000EB1973491C1B786D1E082902F8B0
:100F300008304FEA091908F1010801DA002DF0DC48
:100F400021688B0602D516E0A8F10108E04505DD11
:100F500002EB080313F8013C302BF5D0B8F1000F79
:100F600009DD02EB080313F8013C2E2B03D109071E
:100F700001D4A8F10108002D05DD3E2102F808107A
:100F80006D1E08F10108407C002E02F8080008F1EF
:100F9000010804DA2D20764202F8080002E02B2036
:100FA00002F808000A214FF47A70864208F101081D
:100FB0000BDB96FBF0F3303302F8083096FBF0F3CE
:100FC00008F1010800FB136601E0642E0CDB6420CD
:100FD00096FBF0F3303302F8083096FBF0F308F19B
:100FE000010800FB136601E00A2E06DB96FBF1F018
:100FF000303002F8080008F1010896FBF1F001FB1F
:101000001060303002F80800A16908F1010808EB0F
:10101000050202EB0A00081AA0612078C00602D47B
:101020002046FFF75BF9216A08AE01EB0A00206257
:1010300004E0D4E9012116F8010B9047BAF1010A46
:10104000F7D22078C00602D52046FFF747F96E4652
:1010500009E016F8010B3E280FD0D4E90121904792
:10106000206A401C2062B8F10108F2D22046FFF746
:101070004BF909B00320BDE8F08F206A28442062B4
:1010800003E0D4E90121302090476D1EEBD3F8E74F
:101090009E29000002FCFFFF10B5436913B1AFF3B6
:1010A000008001E0FFF753F9012010BD127800F134
:1010B00024010A7000224A700122EDE711684FF006
:1010C000FF32E9E710B5436913B1AFF3008001E0E7
:1010D000FFF7D4F9012010BD128800F124018284A9
:1010E0000022C2840122EDE711684FF0FF32E9E7E8
:1010F00070B516460C46054600F040F8036893F8B4
:101100000101012806D0FF2C0FD8185D68B101201D
:101110002C7070BDD3F807013246214603F2071345
:1011200003442846BDE8704018474FF0FF3070BDBB
:10113000754600F0EBF8AE4605006946534620F0D0
:101140000700854618B020B5FFF782F8BDE82040BB
:101150004FF000064FF000074FF000084FF0000B73
:1011600021F00701AC46ACE8C009ACE8C009ACE826
:10117000C009ACE8C0098D467047000010B500F00A
:1011800005F8001D10BD00BF1D2600000048704777
:10119000440100202DE9F0411F4604460326016862
:1011A000072A01F4006004DB08B116A505E016A5C6
:1011B00003E008B115A500E015A521F0100020609E
:1011C000A069C01EA0610FB1401EA0612046FFF7BC
:1011D00085F84FB1D4E9012138469047206A401C78
:1011E0002062C01C206206E0206AFAE7D4E90121EF
:1011F00015F8010B9047761EF8D22046FFF784F8C9
:10120000BDE8F0814E414E006E616E00494E4600D1
:10121000696E66002DE9F047814616468AB035486A
:1012200078440DC88DE80D0032487844801C03AC2A
:101230000DC884E80D0041F69B300844372190FB2F
:10124000F1F290FBF1F5A5F1800501FB12041B3CC6
:1012500002D56442012000E00020DFF898A080461B
:101260000027FA44AAF1BE0A0EE0E0070AD032468F
:10127000684607EB470101230AEB810100F022FBDE
:101280008DE8070064107F1C002CEED1194F7F44BD
:10129000AE3F19E0E80715D007EB04100DF1180A6E
:1012A00090E80E008AE80E00C068F04201D198195B
:1012B00008903246012306A903A800F003FB03AB04
:1012C00083E807006D10641C002DE3D14FF001038B
:1012D00032466946B8F1000F03A802D000F0DDFAEB
:1012E00001E000F0EFFAC9E90001C9F808200AB0EE
:1012F000BDE8F087B026000010B50446AFF30080CB
:101300002046BDE81040FEF78EBF00000048704741
:10131000240100204FF0013C50F8042B51F8043B0D
:101320009A4221D1A2EB0C03934313EACC1317D1B9
:1013300050F8042B51F8043B9A4215D1A2EB0C0350
:10134000934313EACC130BD150F8042B51F8043B10
:101350009A4209D1A2EB0C03934313EACC13DBD0DE
:101360004FF00000704700BFD01A01BAB1FA81F106
:1013700001F0180122FA01F0CB40C1F12001DBB2EB
:10138000C0B2C01A2CFA01F3D11A914311EAC31169
:10139000E6D1704701491820ABBEFEE726000200E7
:1013A00070475FEA400C08BF91F0000F4FEA8C23B2
:1013B0004FEAC12243EA51514FEA1C5018BF00F5D1
:1013C000F0404FEA300018BF41F000415FEA6C5C2A
:1013D00000F02980BCF1FF3F08BF40F0804070471B
:1013E000130C06BF12044FF0100C4FF0000C130E3C
:1013F00004BF12020CF1080C130F04BF12010CF110
:10140000040C930F04BF92000CF1020CD30F04BF25
:1014100052000CF1010C11464FF00002A0F11F0028
:10142000A0EB0C00704711F0004F08BF704731F07F
:1014300000413FF4D5AF0B0C06BF09044FF0100C70
:101440004FF0000C0B0E04BF09020CF1080C0B0F3F
:1014500004BF09010CF1040C8B0F04BF89000CF1CF
:10146000020CCB0F04BF49000CF1010CCCF120039E
:10147000A0EB0C0022FA03F302FA0CF241EA03019A
:1014800000F10100704720F07F4C80EA030023F058
:101490007F47ACEB070303F57C5300F0004003F1FA
:1014A000FF032DE980494FEA154B09B44FEA144375
:1014B00025EA0B4E24EA03480FF2042606EB132715
:1014C00049083E785FEA320203FB0667C7F500076A
:1014D00007FB06F64FEA54374FEAD64606F10206F6
:1014E00007FB066CCCF1005C4FEA1C472CEA074C6A
:1014F00007FB06F40CFB06F504EB15464FEA9616BF
:1015000034BF00204FF000404FEAD13706FB07FC04
:101510004FEA1C4C0CFB0BF7D21B03FB0CF761EBE7
:1015200007010CFB0EF7B0EB074072EB17420CFB08
:1015300008F734BFA2EB0742B2EB074261EB174159
:101540004FEA0C444FEA910706FB07FC4FEA1C4C9C
:101550000CFB0BF7B0EBC74072EB573203FB0CF7F9
:1015600034BFA2EBC742B2EBC74261EB57310CFB71
:101570000EF7B0EBC70072EB57720CFB08F734BFE5
:10158000A2EBC702B2EBC70261EB5771039F4FEAB0
:10159000816141EA921104EBCC044FEAD1374FEA62
:1015A000826206FB07FC42EA90124FEA80604FEA33
:1015B0001C4C0CFB0BF7D21B03FB0CF761EB070178
:1015C0000CFB0EF7B0EB074072EB17420CFB08F771
:1015D00034BFA2EB0742B2EB074261EB17414FEA7F
:1015E0008C554FEA910704EB9C2406FB07FC4FEA5D
:1015F0001C4C0CFB0BF7B0EBC74072EB573203FBF4
:101600000CF734BFA2EBC742B2EBC74261EB5731D4
:101610000CFB0EF7B0EBC70072EB57720CFB08F730
:1016200034BFA2EBC702B2EBC70261EB577115EBF7
:101630004C254FEA816141EA92114FEA82624FEAFA
:10164000D13742EA901206FB07FC44F100044FEA4E
:1016500080604FEA1C4C0CFB0BF7D21B03FB0CF712
:1016600061EB07010CFB0EF7B0EB074072EB174282
:101670000CFB08F734BFA2EB0742B2EB074261EB69
:10168000174115EB1C154FEA813141EA92414FEAAF
:10169000823242EA90424FEA80304FEA0C7644F1BF
:1016A000000448EA03434EEA0B484FF0000EB2EB49
:1016B000080C71EB030724BF624639464EEB0E0E51
:1016C0004FF0000B0018524149414BEB0B0BB2EBB2
:1016D000080C71EB03077BF1000B24BF624639460F
:1016E0004EEB0E0E4FF0000B0018524149414BEBF0
:1016F0000B0BB2EB080C71EB03077BF1000B24BF63
:10170000624639464EEB0E0E51EA020718BF46F00C
:10171000010616EB0E7655F1000254F1000103D5D7
:10172000BDE88901BDE80088BDE88901BDE8004841
:10173000B619524141EB0101A3F1010370478080CA
:101740007F7E7D7C7B7A797877767675747372711B
:1017500071706F6E6E6D6C6C6B6A6A6968686766D3
:1017600066656464636362616160605F5F5E5E5D65
:101770005D5C5C5B5B5A5A595958585757565655D9
:1017800055555454535352525251515050504F4F3B
:101790004F4E4E4D4D4D4C4C4C4B4B4B4A4A4A498B
:1017A00049494848484747474746464645454544CE
:1017B0004444444343434342424242414141002B5B
:1017C0009C4630D477002BD01CB54FEA370703B4C2
:1017D0004FF010004FF01001BAF1000F06D0BCF12D
:1017E000000FDCBF40F0080040F008014FF000009F
:1017F0000FBCBDE810400BF1010BBBF1010F08BF9E
:101800005FEA170722BF12F1010211F101014FF047
:10181000004143F1000300F0004043EA000070473C
:10182000F9D35708D0E746EA064613F1400F4FEACE
:1018300016461FDD13F1200FDFBF16430A460021B5
:1018400020335B42BED0C3F1200746EA064602FAC7
:1018500007F74FEA164646EA0706C3F1200722FAC1
:1018600003F201FA07F721FA03F14FF0000342EA0D
:101870000702A7E746EA020646EA06464FEA164688
:1018800046EA0106BCBF46EA0646360C4FF00003A6
:101890004FF000024FF0000194E72DE9804C9A468A
:1018A000934670B491E8380007C831EA400C48BF4D
:1018B00034EA430C03D5FFF7E6FDFFF780FFF0BCE9
:1018C000BDE8008C2DE9804C9A46934670B491E8AF
:1018D000380007C810F0804F08BF13F0804F03D1C5
:1018E00000F005F8FFF76BFFF0BCBDE8008C20F0BE
:1018F0007F4780EA030023F07F4C07EB0C03A3F53E
:101900007C5300F00040A3F1FE0392F0000F00F0C2
:10191000B38095F0000F00F077802DE901494FEA80
:1019200011404FEA144621EA004800FB06FC24EA75
:10193000064708FB06F607FB08F800FB07F718EB5D
:1019400006484CEB164C4FEA124B18EB07484FEA8F
:1019500015464CEB174022EA0B4E0BFB06FC25EA22
:1019600006470EFB06F607FB0EFE0BFB07F71EEB0A
:10197000064E4CEB164C4FF000061EEB074E4CEBA0
:10198000174B18EB0B0840F1000018EB0E0B58EB4F
:10199000000840F100008F1A4FF000013CBFC9431E
:1019A000661B14BFB5EB040C00213CBFC943F61BFA
:1019B0004FEA17444EEA8E0E27EA04454FEA1C47C9
:1019C00004FB07622CEA074C05FB07F70CFB05F646
:1019D00004FB0CFC16EB074642EB174216EB0C46D9
:1019E00042EB1C421BEB060658EB0202414146EA61
:1019F0009E0601D5BDE80189B619524141EB0101AE
:101A0000A3F10103BDE801894FEA14454FEA1147EC
:101A100024EA054621EA074C05FB07F406FB07F715
:101A20000CFB06F105FB0CFC11EB074144EB1744E2
:101A30004FEA124711EB0C4144EB1C4422EA074CDD
:101A400005FB07F206FB07F70CFB06F605FB0CFC93
:101A500016EB074642EB174216EB0C4642EB1C45D1
:101A60006A1854F1000148BF7047B619524141EB62
:101A70000101A3F10103704795F0000F37D04FEA41
:101A800011424FEA144721EA024624EA074C02FBBE
:101A900007F106FB07F70CFB06F402FB0CFC14EB4A
:101AA000074441EB17414FEA154714EB0C4441EB57
:101AB0001C4125EA074C02FB07F506FB07F70CFB68
:101AC00006F602FB0CFC16EB074645EB174516EB3A
:101AD0000C4645EB1C42121951F1000148BF7047FA
:101AE000B619524141EB0101A3F1010370474FEADE
:101AF00014454FEA114724EA054621EA074C05FB45
:101B000007F106FB07F70CFB06F24FF0000605FB9A
:101B10000CFC12EB074241EB174112EB0C4251EB6C
:101B20001C4148BF7047921841EB0101A3F101032A
:101B3000704700BFFEE7000010B50A24014800F01E
:101B400085F810BD5C00002010B50A24014800F0A3
:101B50007DF810BDA000002030B590F84050012461
:101B6000AC40C56B6C60046863604468102C04D1A1
:101B70000468A2600468E16003E00468A16004688E
:101B8000E26030BD704710B5012000F01BFA10BDB7
:101B900010B54FF4005000F015FA10BD70B50446B2
:101BA000002594F82100022803D00420A063012519
:101BB00048E02068006820F00E0021680860206876
:101BC000006820F00100216808601F4920688842F1
:101BD00001D1012026E01C4914312068884201D13E
:101BE00010201FE0184928312068884201D1801553
:101BF00018E015493C312068884201D1801411E079
:101C0000114950312068884202D14FF4803009E0F8
:101C10000D4964312068884202D14FF4801001E000
:101C20004FF08070084908394860012084F821008D
:101C300000BF002084F8200000BF606B10B1204678
:101C4000616B8847284670BD0800024070B50446A5
:101C5000E06B05682068066894F84010042088400E
:101C60002840002846D006F00400002842D0206812
:101C7000006800F0200028B92068006820F0040007
:101C80002168086057492068884201D1042027E074
:101C9000544914312068884201D1402020E0514944
:101CA00028312068884201D1001519E04D493C31A6
:101CB0002068884202D14FF4804011E049495031F8
:101CC0002068884202D14FF4802009E04549643100
:101CD0002068884202D14FF4800001E04FF080601C
:101CE000404908394860E06A00287AD02046E16A15
:101CF000884776E094F84010022088402840A0B33E
:101D000006F0020088B32068006800F0200040B9A7
:101D10002068006820F00A0021680860012084F82B
:101D2000210030492068884201D1022028E02D4955
:101D300014312068884201D1202021E0294928312E
:101D40002068884201D140151AE026493C312068BC
:101D5000884202D14FF4005012E0224950312068ED
:101D6000884203D14FF400300AE017E01D49643186
:101D70002068884202D14FF4001001E04FF000705B
:101D800018490839486000BF002084F8200000BFCF
:101D9000A06A30B32046A16A884722E094F8401038
:101DA000082088402840E0B106F00800C8B120684B
:101DB000006820F00E002168086094F840100120AF
:101DC0008840E16B48600120A06384F8210000BFD7
:101DD000002084F8200000BF206B10B12046216B4A
:101DE000884770BD080002400146002209B9012061
:101DF0007047164B0868C01A1423B0FBF3F080003C
:101E0000086412480838C863022081F82100086875
:101E1000026843F6F0708243D1E901031843CB68AE
:101E200018430B6918434B6918438B691843CB69F6
:101E3000184302430868026000208863012081F88B
:101E40002100002081F8200000BFD1E708000240F7
:101E50002DE9F04104460D4616461F464FF0000896
:101E600000BF94F82000012802D10220BDE8F081D3
:101E7000012084F8200000BF94F8210001282CD113
:101E8000022084F821000020A0632068006820F070
:101E90000100216808603B46324629462046FFF78C
:101EA0005BFEE06A30B12068006840F00E002168F7
:101EB00008600BE02068006820F0040021680860DA
:101EC0002068006840F00A00216808602068006807
:101ED00040F001002168086006E000BF002084F89F
:101EE000200000BF4FF002084046BFE770B505462E
:101EF000012D31D0B5F5005F58D14FF400512D4878
:101F000000F0FEF9012813D1002407E04FF400513E
:101F1000284800F0F5F900B970BD641C2648006837
:101F20008442F3D340BF0121244800F0F1F912E0CC
:101F3000002408E04FF400511E4800F0E1F90128A8
:101F400000D1E9E7641C1C4800688442F2D30121F7
:101F50001A4800F0DDF929E00121194800F0D0F914
:101F600090B9002407E00121154800F0C9F90128C3
:101F700000D1D1E7641C104800688442F3D30121EA
:101F80000E4800F0C5F910E0002406E001210C48DD
:101F900000F0B6F900B9BFE7641C07480068844246
:101FA000F4D30121054800F0B3F900BF00BF00BF22
:101FB000B2E700000010014004000020000C0140C6
:101FC0000008014010B5044604480068204020B1D4
:101FD000024804602046FFF789FF10BD1404014049
:101FE0002DE9F8470346002294466EE14FF00108C0
:101FF00008FA02F4D1F8008008EA0400A0427DD17A
:10200000DFF8DCA2D1F80480A8EB0A09D0453AD069
:1020100014DCB8F1030F50D009DCB8F1000F31D057
:10202000B8F1010F1CD0B8F1020F49D120E0B8F18E
:10203000110F18D0B8F1120F42D11EE0B9F5881F68
:1020400025D006DCB9F5803F20D0B9F5801F37D107
:102050001AE0B9F5001F18D0B9F5041F30D117E008
:10206000D1F80CC02DE0D1F80C8008F1040C28E068
:10207000D1F80C8008F1080C23E0D1F80C8008F1AD
:102080000C0C1EE000BF00BF00BF00BF00BF00BFC0
:10209000D1F80880B8F1000F02D14FF0040C0BE02A
:1020A000D1F80880B8F1010F03D14FF0080C1C6182
:1020B00002E04FF0080C5C6103E04FF0000C00E020
:1020C00000BF00BFFF2801D8984601E003F10408D3
:1020D0004646FF2802D84FEA820803E0A2F108082A
:1020E0004FEA88084746D6F800804FF00F0909FAF2
:1020F00007F928EA09080CFA07F900E088E048EA3D
:102100000908C6F80080D1F8048008F08058B8F1BA
:10211000805F7DD100BFDFF8CC81D8F8188048F00F
:102120000108DFF8C091C9F81880C846D8F81880AF
:1021300008F00108CDF8008000BF00BF4FEAB938B1
:102140004FEA920958F829504FEA82784FEA1879F5
:102150004FF00F0808FA09F825EA0805DFF888812A
:10216000434502D14FF0000816E0DFF88081434577
:1021700002D14FF001080FE0DFF87481434502D12E
:102180004FF0020808E0DFF86C81434502D14FF0C0
:10219000030801E04FF004084FEA82794FEA197909
:1021A00008FA09F848EA0505DFF84C814FEA920978
:1021B00048F82950D1F8048008F48038B8F5803FF9
:1021C0000AD1DFF83881D8F8008048EA0008DFF843
:1021D0002C91C9F8008009E0DFF82081D8F8008050
:1021E00028EA0008DFF81491C9F80080D1F80480CB
:1021F00008F40038B8F5003F10D1DFF8008108F18D
:102200000408D8F8008048EA0008DFF8F09000E001
:102210005AE009F10409C9F800800DE0DFF8DC801C
:1022200008F10408D8F8008028EA0008DFF8CC900C
:1022300009F10409C9F80080D1F8048008F4801875
:10224000B8F5801F0ED1DFF8B48008F10808D8F87F
:10225000008048EA0008DFF8A49009F10809C9F8ED
:1022600000800DE0DFF8948008F10808D8F80080BD
:1022700028EA0008DFF8849009F10809C9F800800D
:10228000D1F8048008F40018B8F5001F0ED1DFF86B
:102290006C8008F10C08D8F8008048EA0008DFF8E4
:1022A0005C9009F10C09C9F800800DE0DFF84C8062
:1022B00008F10C08D8F8008028EA0008DFF83C9004
:1022C00009F10C09C9F80080521CD1F8008028FAE5
:1022D00002F8B8F1000F7FF489AEBDE8F88700007E
:1022E000000011100010024000080140000C0140E5
:1022F00000100140001401400800014000040140AA
:10230000024693680B400BB1012000E000207047AB
:10231000C2680A400AB1416100E0016170470000F3
:1023200001480068704700000C0000200348006866
:102330000349097808440149086070470C000020EF
:102340001400002010B50848006840F0100006494D
:102350000860032000F080F80F2000F007F800F07C
:102360002BF8002010BD00000020024070B504468C
:102370000E4800784FF47A71B1FBF0F00C4909680F
:10238000B1FBF0F5284600F0E3FB08B1012070BD79
:10239000102C07D200222146501E00F01EF80548DE
:1023A000046001E00120F2E70020F0E714000020C3
:1023B0001800002010000020704701460846002841
:1023C00009DB00F01F0301229A4043099B0003F13F
:1023D000E023C3F8002100BF70472DE9F05F80467D
:1023E0000D461646002701F05BF9074639462A4696
:1023F000334601F00700C0F1070ABAF1040F02D911
:102400004FF0040A01E0C0F1070AD14600F1040AC6
:10241000BAF1070F02D24FF0000A01E0A0F1030A5F
:10242000D4464FF0010A0AFA09FAAAF1010A0AEAA7
:10243000020A0AFA0CFA4FF0010B0BFA0CFBABF193
:10244000010B0BEA030B4AEA0B042146404601F05C
:102450002FF9BDE8F09F000000BF00F00702064B17
:1024600019684FF6FF031940044B0B4343EA02215E
:10247000014B196000BF70470CED00E00000FA0549
:1024800070B504460D460CB9012070BD5A4800686D
:1024900000F00700A8420ED25748006820F007005D
:1024A0002843554908600846006800F00700A84224
:1024B00001D00120E9E7207800F0020002281DD1B8
:1024C000207800F00400042805D14C48406840F40E
:1024D000E0604A494860207800F00800082805D1EB
:1024E0004648406840F4605044494860434840686A
:1024F00020F0F000A168084340494860207800F0CF
:10250000010078B36068012806D13C48006800F4F7
:10251000003090B90120B8E76068022806D137483A
:10252000006800F0007040B90120AEE73348006851
:1025300000F0020008B90120A7E73048406820F009
:102540000300616808432D494860FFF7E9FE06462D
:1025500009E0FFF7E5FE801B41F28831884202D98D
:10256000032092E707E02548406800F00C0061680E
:10257000B0EB810FEDD12048006800F00700A842C1
:102580000ED91D48006820F0070028431A4908604A
:102590000846006800F00700A84201D0012074E757
:1025A000207800F00400042807D11448406820F483
:1025B000E060E168084311494860207800F00800B5
:1025C000082808D10D48406820F46050216940EA8D
:1025D000C1000A49486000F03FF808494968C1F362
:1025E0000311074A515CC840064908600648006864
:1025F000FFF7BCFE002048E7002002400010024028
:10260000D83700081800002010000020014800689A
:10261000704700001800002000B5FFF7F7FF0449DD
:102620004968C1F30221034A515CC84000BD000063
:1026300000100240E837000800B5FFF7E7FF044943
:102640004968C1F3C221034A515CC84000BD000083
:1026500000100240E8370008F0B585B00FF26C0CAE
:102660009CE8E01001A8A0E8E0101CA52D680095EA
:1026700000210022002300240020194D696801F088
:102680000C05F5B1042D02D0082D19D101E0154833
:1026900019E001ADC1F38346AC5D01F4803555B15D
:1026A0000F4D6D68C5F340451DF805200D4D654380
:1026B000B5FBF2F302E00C4D04FB05F3184602E013
:1026C00000BF084800BF00BF05B0F0BD020304050D
:1026D000060708090A0B0C0D0E0F1010010200006E
:1026E0000010024000127A0000093D00F8B50446CF
:1026F0000CB90120F8BD207800F00100002878D046
:10270000F848406800F00C0004280CD0F5484068F8
:1027100000F00C00082811D1F248406800F4803025
:10272000B0F5803F0AD1EF48006800F4003000287F
:102730005FD0606800285CD10120DBE700BF6068E3
:10274000B0F5803F06D1E748006840F48030E549A5
:10275000086028E0606858B9E248006820F48030DA
:10276000E04908600846006820F4802008601AE00C
:102770006068B0F5A02F0BD1DA48006840F48020E3
:10278000D84908600846006840F4803008600AE0D4
:10279000D448006820F48030D249086008460068B8
:1027A00020F48020086000BF606888B1FFF7B8FDA2
:1027B000054606E0FFF7B4FD401B642801D903205D
:1027C00098E7C848006800F400300028F2D010E014
:1027D000FFF7A6FD054606E0FFF7A2FD401B6428B3
:1027E00001D9032086E7BF48006800F400300028C4
:1027F000F2D1207800F00200022857D1B948406891
:1028000000F00C0050B1B748406800F00C000828F8
:1028100018D1B448406800F4803098B9B1480068D5
:1028200000F0020020B12069012801D0012061E7F9
:10283000AC48006820F0F800616940EAC100A9498D
:10284000086033E02069E8B10120A7490860FFF77C
:1028500067FD054606E0FFF763FD401B022801D92E
:10286000032047E79F48006800F002000028F2D0EC
:102870009C48006820F0F800616940EAC10099496D
:10288000086013E0002098490860FFF749FD0546FD
:1028900006E0FFF745FD401B022801D9032029E788
:1028A0009048006800F002000028F2D1207800F083
:1028B000080008282DD1A069B8B101208B49086013
:1028C000FFF72EFD054606E0FFF72AFD401B022814
:1028D00001D903200EE78348406A00F00200002877
:1028E000F2D0012000F0A4FB13E000207F49086033
:1028F000FFF716FD054606E0FFF712FD401B022814
:1029000001D90320F6E67748406A00F0020000286B
:10291000F2D1207800F00400042873D10027714818
:10292000C06900F0805070B900BF6E48C06940F0C7
:1029300080506C49C8610846C06900F08050009022
:1029400000BF00BF01276A48006800F48070B0B97A
:102950006748006840F4807065490860FFF7E0FC54
:10296000054606E0FFF7DCFC401B642801D9032084
:10297000C0E65F48006800F480700028F2D000BF15
:10298000E068012806D15748006A40F00100554927
:10299000086227E0E06858B95248006A20F0010058
:1029A000504908620846006A20F00400086219E0F5
:1029B000E06805280BD14B48006A40F00400494903
:1029C00008620846006A40F0010008620AE04548D3
:1029D000006A20F00100434908620846006A20F0BE
:1029E0000400086200BFE068A0B1FFF799FC05464B
:1029F00009E0FFF795FC401B41F28831884202D97B
:102A0000032077E622E03748006A00F00200002841
:102A1000EFD012E0FFF784FC054608E0FFF780FCEA
:102A2000401B41F28831884201D9032062E62D48DB
:102A3000006A00F002000028F0D1012F05D12948DA
:102A4000C06920F080502749C86100BFE069C8B361
:102A50002448406800F00C00082860D0E069022893
:102A600048D1002020490866FFF75AFC054606E0D9
:102A7000FFF756FC401B022801D903203AE619480B
:102A8000006800F000700028F2D1206AB0F5803FA5
:102A900007D11448406820F40030A1680843114968
:102AA0004860D4E9080108430E49496821F47411CB
:102AB00008430C49486001200B490866FFF730FCC9
:102AC000054607E03DE0FFF72BFC401B022801D93B
:102AD00003200FE60348006800F000700028F2D0E1
:102AE0002FE00000001002400000424280044242F9
:102AF00000700040002014490866FFF711FC0546ED
:102B000006E0FFF70DFC401B022801D90320F1E588
:102B10000E48006800F000700028F2D111E0E06972
:102B2000012800D1E6E50948466806F48031206AAC
:102B3000814204D106F47011606A814201D0012003
:102B4000D8E50020D6E50000000042420010024017
:102B500070B504462546681EB0F1807F01D3012080
:102B60000FE0681E4FF0E02148610F214FF0FF3069
:102B700000F09EFD00204FF0E021886107200861F1
:102B8000002070BD7047000010B504462068C06882
:102B900020F490702168C8602068406920F001002E
:102BA000216848612068406900F04000D8B1206881
:102BB000406920F0400021684861606B50B10F48C7
:102BC000616B4863606BFEF7E9FFA0B1606B416B1E
:102BD000884710E00020E085202084F83A00204655
:102BE000FFF7D0FF07E00020E085202084F83A00BE
:102BF0002046FFF7C7FF002010BD0000D9320008B3
:102C0000704700002DE9F0470446206805682068F9
:102C1000C668206847694FF00008C14605F00F08F4
:102C2000B8F1000F0AD105F0200038B106F02000FD
:102C300020B1204600F0A8FBBDE8F087B8F1000FF6
:102C40006DD007F0010018B906F49070002866D026
:102C500005F0010030B106F4807018B1E06B40F06F
:102C60000100E06305F0040030B107F0010018B185
:102C7000E06B40F00200E06305F0020030B107F0C5
:102C8000010018B1E06B40F00400E06305F00800BB
:102C900030B107F0010018B1E06B40F00800E063CC
:102CA000E06B68B305F0200028B106F0200010B1F9
:102CB000204600F069FB20684069C0F38019E06B92
:102CC00000F0080010B9B9F1000F22D0204600F042
:102CD00031FB2068406900F04000B0B120684069D5
:102CE00020F0400021684861606B50B11748616B6B
:102CF0004863606BFEF752FF10B1606B416B884711
:102D00000CE02046FFF77CFF08E02046FFF778FF45
:102D100004E02046FFF774FF0020E0638CE705F035
:102D2000800030B106F0800018B1204600F050FC61
:102D300082E705F0400030B106F0400018B12046AF
:102D400000F008FB78E700BF76E7000021320008BA
:102D500010B504460CB9012010BDA06900B100E017
:102D600000BF94F8390028B9002084F838002046C4
:102D700000F028F8242084F839002068C06820F486
:102D800000502168C860204600F052FB20680069AE
:102D900020F49040216808612068406920F02A00F2
:102DA000216848612068C06840F400502168C8600C
:102DB0000020E063202084F8390084F83A000020E5
:102DC000CAE7000010B586B004461E492068884254
:102DD00036D100BF1C48806940F004001A49886160
:102DE0000846806900F00400019000BF00BF00BFEA
:102DF0000846806940F4804088610846806900F494
:102E00008040019000BF00BF48150290022003904F
:102E10000120059002A90D48FFF7E2F84FF4806009
:102E2000029000200390049002A90848FFF7D8F808
:102E3000002203212520FFF7D0FA2520FFF7BDFA55
:102E400006B010BD003801400010024000080140EB
:102E500077B581B00446154694F83A00202850D141
:102E6000029800B115B9012004B070BD00BF94F8FC
:102E70003800012801D10220F6E7012084F838004B
:102E800000BF0298A062A5850020E063222084F89C
:102E90003A001D48616B88621C48616BC8621C481F
:102EA000616B08630020616B486302AE326823687F
:102EB000191D2B46606BFEF7CBFF00BF0020009072
:102EC00020680068009020684068009000BF00BF44
:102ED00000BF002084F8380000BF2068C06840F4BC
:102EE00080702168C8602068406940F00100216856
:102EF00048612068406940F0400021684861002036
:102F0000B2E70220B0E7000085320008CB320008AB
:102F1000353200087047000070B504460949206842
:102F200088420DD194F83900202809D10648FDF7D0
:102F3000B3F9C0F34F052A460349044800F008F8E6
:102F400070BD000000380140E40000201C0000209B
:102F5000F7B50446154694F8390020283DD101986C
:102F600000B10DB90120FEBD00BF94F83800012862
:102F700001D10220F7E7012084F8380000BF019852
:102F80002062A584E5840020E063212084F83900D4
:102F90001348216B88621348216BC8621248216B69
:102FA00008630020216B486301AE23681A1D316855
:102FB0002B46206BFEF74CFF6FF040002168086045
:102FC00000BF002084F8380000BF2068406940F04E
:102FD0008000216848610020C5E70220C3E70000A7
:102FE000F1320008273300083532000810B50446D6
:102FF00003492068884202D102A000F08DFB10BD79
:103000000038014048414C5F554152545F54784369
:10301000706C7443616C6C6261636B0A0000000049
:10302000704700BFFEE700BFFEE770477047000033
:1030300008B508490968C9084FF47A72B1FBF2F182
:103040004143009100BF00BF00994A1E0092002931
:10305000F9D108BD1800002000B58FB001200590FF
:10306000000406900020079002200C90C1030D91EF
:103070004FF4E0110E9105A8FFF738FB0F200090E8
:1030800002200190002002904FF480600390002005
:10309000049002216846FFF7F3F90FB000BD7047B6
:1030A00010B5FFF743F910BD1148006840F001006A
:1030B0000F490860084640680E4908400C494860BE
:1030C000084600680C49084009490860084600683D
:1030D00020F4802008600846406820F4FE00486024
:1030E0004FF41F008860C80304490860704700005F
:1030F000001002400000FFF8FFFFF6FE08ED00E0C0
:1031000010B5044608480949086008464460002193
:103110008160C16001610C21416100218161FFF783
:1031200017FE00F005F810BD003801401C0000201B
:1031300008B500BF0B48406940F0010009494861EB
:103140000846406900F00100009000BF00BF00F099
:103150003BF800F00DF8142203490448FFF778FE0D
:1031600008BD000000100240E40000201C00002008
:1031700010B512481249086000204860002110482C
:1031800081608021C16000210161416181614FF452
:103190008051C16100BF0B49486308460849486235
:1031A00000BF0846FEF720FE002203210F20FFF794
:1031B00014F90F20FFF701F910BD0000580002407C
:1031C000A00000201C00002010B512481249086021
:1031D000102048600021104881608021C1600021DA
:1031E0000161416181614FF48051C16100BF0B49B0
:1031F000086308460849486200BF0846FEF7F4FD28
:10320000002203210E20FFF7E8F80E20FFF7D5F883
:1032100010BD0000440002405C0000201C000020A3
:1032200070B505466C6A0020E085E0842046FFF713
:10323000E7FC70BD70B506460025746A20684069D9
:10324000C0F3C01594F83900212805D125B100201C
:10325000E084204600F08EF820684069C0F38015B5
:1032600094F83A00222805D125B10020E0852046B7
:1032700000F060F8E06B40F01000E0632046FFF7DC
:10328000BFFC70BD70B505466C6A2868006800F028
:103290002000B0B90020E0852068C06820F480706C
:1032A0002168C8602068406920F0010021684861F9
:1032B0002068406920F0400021684861202084F89F
:1032C0003A002046FFF726FE70BD70B50446656AD9
:1032D0002846FFF721FE70BD70B505466C6A0020D8
:1032E000E085202084F83A002046FFF74BFC70BDB3
:1032F00070B505466C6A2868006800F0200070B957
:103300000020E0842068406920F080002168486146
:103310002068C06840F040002168C86002E0204694
:10332000FFF764FE70BD70B50446656A2846FFF776
:1033300077FE70BD0168C96821F490710268D160A0
:103340000168496921F0010102685161202180F87A
:103350003A10704710B504462068C06820F040005D
:103360002168C860202084F839002046FFF73EFE1F
:10337000002010BD0168C96821F0C0010268D16059
:10338000202180F83910704770B5044694F83A004F
:1033900022284AD1A068B0F5805F13D1A56A2069C0
:1033A00040B920684068C0F308002880A06A801CEB
:1033B000A06219E020684068C0B22880A06A401C62
:1033C000A06211E0206938B920684068C1B2A26AE1
:1033D000501CA062117007E02068406800F07F0177
:1033E000A26A501CA0621170E08D401E80B2E08580
:1033F000C8B92068C06820F020002168C860206833
:10340000C06820F480702168C8602068406920F09E
:10341000010021684861202084F83A002046FFF727
:1034200079FD002070BD0020FCE70220FAE70000D3
:1034300070B504462168096921F44051E2681143DE
:10344000226811612269A1681143626941EA02059B
:103450002168C96841F20C62914329432268D16016
:103460002168496921F44071A269114322685161C0
:10347000564A2168914254D1FFF7DEF800EBC001B3
:1034800001EB001162689200B1FBF2F100EBC002A7
:1034900002EB001263689B00B2FBF3F26423B2FB01
:1034A000F3F202EBC20303EB0212A1EB8201322220
:1034B00002EB01116422B1FBF2F101F0F00100EB2B
:1034C000C00202EB001263689B00B2FBF3F26423BC
:1034D000B2FBF3F201EB021200EBC00101EB0011B1
:1034E00063689B00B1FBF3F100EBC00303EB001337
:1034F0006668B600B3FBF6F36426B3FBF6F303EBA2
:10350000C30606EB0313A1EB8301322303EB011186
:103510006423B1FBF3F101F00F01114422689160C3
:1035200053E0FFF779F800EBC00101EB001162688E
:103530009200B1FBF2F100EBC00202EB00126368F3
:103540009B00B2FBF3F26423B2FBF3F202EBC20383
:1035500003EB0212A1EB8201322202EB0111642281
:10356000B1FBF2F101F0F00100EBC00202EB00123E
:1035700063689B00B2FBF3F26423B2FBF3F201EB4E
:10358000021200EBC00101EB001163689B00B1FB6C
:10359000F3F100EBC00303EB00136668B600B3FB66
:1035A000F6F36426B3FBF6F303EBC30606EB031353
:1035B000A1EB8301322303EB01116423B1FBF3F18F
:1035C00001F00F0111442268916070BD0038014084
:1035D000014691F8390021282CD18868B0F5805F28
:1035E0000FD10A6A1088C0F308000B685860086998
:1035F00018B9086A801C086209E0086A401C086261
:1036000005E00B6A581C086218780B685860C88C73
:10361000401E80B2C88458B90868C06820F0800095
:103620000B68D8600868C06840F040000B68D8603C
:10363000002070470220FCE708B50D48FFF7E2FACA
:103640000B480068006800F0100010280FD100BF80
:103650000020009006480068006800900448006858
:103660004068009000BF00BF0148FFF78DFA08BD19
:103670001C00002000BFFEE7490050EAC12018BF2F
:1036800004204A0D18BF40F0010040F2FF72B2EB77
:10369000515F08BF40F00200012808BF05207047B5
:1036A00002480068C0F30220704700000CED00E003
:1036B00010B5002804DB0A07130E054A135406E070
:1036C0000A07140E034A00F00F031B1FD45410BD49
:1036D00000E400E018ED00E030380A2801D20120B3
:1036E0007047002070470000FEF72CFEFFF7B4FC87
:1036F0004FF46120FFF704FD0A2102A000F00CF84E
:1037000000BFFEE750726F6772616D207374617263
:10371000743A2025640A00000FB410B5C2B045A861
:10372000019002A8019A4499FCF7A4FD00200190A1
:1037300000240EE000BF0F480068006800F0800021
:103740008028F8D102A8005D0A4909684860601C19
:1037500084B202A8FCF7A0FDA042EBD800BF054848
:103760000068006800F040004028F8D142B010BC6A
:103770005DF814FB1C00002010B500290AD0087861
:10378000002807D005487844FDF7C4FD002801D083
:10379000002010BD0248784410BD000086010000E2
:1037A0007E01000010B500290AD00878002807D053
:1037B00005487844FDF7AEFD002801D0002010BD7B
:1037C0000248784410BD0000760100006E01000040
:1037D000FDF7ADB9FDF7E2BA0000000000000000FF
:1037E00001020304060708090000000001020304A7
:1037F000000000000000000030313233343536372D
:103800003839414243444546403058003031323324
:103810003435363738396162636465664030780024
:103820000400000800000000000000020001000089
:10383000103031323334353637383961626364657C
:10384000667870003031323334353637383941429A
:10385000434445465850000002400000000000A0CC
:103860000000000005400000000000C8000000004B
:103870000C4000000000409C0000000019400000C7
:103880000020BCBE0000000034400000BFC91B8EF9
:1038900000000004B5400000504BCFD06607E2CFD7
:1038A000010000006C4100003E8251AADFEEA73407
:1038B00001000000D9420000DCB5A0E23A301F97B9
:1038C000FFFFFFFFB4450000FD25A0C8E9A3C14FDD
:1038D000FFFFFFFFFF3F000000000080000000002E
:1038E000FF3F00000000008000000000383A0008A0
:1038F000000000201C00000028010008543A0008C5
:103900001C0000206C070000440100081C0000009F
:1039100043000000F8FFFFFF0C0000000E00000055
:103920000F0000002E000000100100004300000006
:10393000F8FFFFFF004040404040404040404141D0
:103940004141414040404040404040404040404074
:10395000404040404005020202020202020202020E
:10396000020202020220202020202020202020020B
:10397000020202020202909090909090101010109B
:103980001010101010101010101010101010101037
:1039900002020202020288888888888808080808CB
:1039A0000808080808080808080808080808080897
:1039B00002020202400000000000000000000000BF
:1039C00000000000000000000000000000000000F7
:1039D00000000000000000000000000000000000E7
:1039E00000000000000000000000000000000000D7
:1039F00000000000000000000000000000000000C7
:103A000000000000000000000000000000000000B6
:103A100000000000000000000000000000000000A6
:103A20000000000000000000000000000000000096
:103A3000000000000000000000000000FF7F000008
:103A4000FF7F0000000000001000000001000000E7
:043A50000024F4005A
:04000005080000ED02
:00000001FF
