:020000040800F2
:100000008006002089010008090F0008B50E0008CD
:10001000050F0008430200088D10000800000000D2
:100020000000000000000000000000007B0F00083E
:1000300047020008000000000B0F00082D10000808
:10004000A3010008A3010008A3010008A301000800
:10005000A3010008A301000849020008A301000849
:10006000A3010008A3010008A3010008A3010008E0
:10007000A3010008A3010008A3010008A3010008D0
:10008000A3010008A3010008A3010008A3010008C0
:10009000A3010008A3010008A3010008A3010008B0
:1000A000A3010008A3010008A3010008A3010008A0
:1000B000A3010008A3010008A3010008A301000890
:1000C000A3010008A3010008A3010008A301000880
:1000D000A3010008A3010008A3010008A301000870
:1000E00053020008A3010008A301000800F002F871
:1000F00000F03AF80AA090E8000C82448344AAF188
:100100000107DA4501D100F02FF8AFF2090EBAE885
:100110000F0013F0010F18BFFB1A43F0010318473B
:10012000D80F0000F80F0000103A24BF78C878C13B
:10013000FAD8520724BF30C830C144BF04680C60ED
:10014000704700000023002400250026103A28BF35
:1001500078C1FBD8520728BF30C148BF0B60704739
:100160001FB51FBD10B510BD00F031F81146FFF7E7
:10017000F7FF00F0A9FF00F04FF803B4FFF7F2FF1C
:1001800003BC00F057F800000948804709480047C1
:10019000FEE7FEE7FEE7FEE7FEE7FEE7FEE7FEE737
:1001A000FEE7FEE704480549054A064B7047000094
:1001B00035100008ED0000088000002080060020B7
:1001C000800200208002002070477047704775460B
:1001D00000F02CF8AE4605006946534620F00700B3
:1001E000854618B020B5FFF7DDFFBDE820404FF091
:1001F00000064FF000074FF000084FF0000B21F011
:100200000701AC46ACE8C009ACE8C009ACE8C009DD
:10021000ACE8C0098D46704710B50446AFF30080C6
:100220002046BDE81040FFF7A8BF00000048704717
:100230001C00002001491820ABBEFEE7260002008A
:10024000704700BFFEE7704710B5012000F072F85C
:1002500010BD10B54FF4005000F06CF810BD000058
:1002600070B50546012D30D0B5F5005F57D14FF47C
:1002700000512C4800F0FCF9012812D1002407E0BD
:100280004FF40051274800F0F3F900B970BD641C29
:10029000254800688442F3D30121244800F0F0F996
:1002A00012E0002408E04FF400511E4800F0E0F98D
:1002B000012800D1EAE7641C1B4800688442F2D39D
:1002C00001211A4800F0DCF929E00121184800F06A
:1002D000CFF990B9002407E00121154800F0C8F9D2
:1002E000012800D1D2E7641C0F4800688442F3D390
:1002F00001210E4800F0C4F910E0002406E00121BD
:100300000B4800F0B5F900B9C0E7641C0648006866
:100310008442F4D30121054800F0B2F900BF00BFC8
:1003200000BFB3E70010014004000020000C0140B2
:100330000008014010B5044604480068204020B180
:10034000024804602046FFF78BFF10BD14040140F3
:100350002DE9F8470346002294466EE14FF001086C
:1003600008FA02F4D1F8008008EA0400A0427DD126
:10037000DFF8DCA2D1F80480A8EB0A09D0453AD016
:1003800014DCB8F1030F50D009DCB8F1000F31D004
:10039000B8F1010F1CD0B8F1020F49D120E0B8F13B
:1003A000110F18D0B8F1120F42D11EE0B9F5881F15
:1003B00025D006DCB9F5803F20D0B9F5801F37D1B4
:1003C0001AE0B9F5001F18D0B9F5041F30D117E0B5
:1003D000D1F80CC02DE0D1F80C8008F1040C28E015
:1003E000D1F80C8008F1080C23E0D1F80C8008F15A
:1003F0000C0C1EE000BF00BF00BF00BF00BF00BF6D
:10040000D1F80880B8F1000F02D14FF0040C0BE0D6
:10041000D1F80880B8F1010F03D14FF0080C1C612E
:1004200002E04FF0080C5C6103E04FF0000C00E0CC
:1004300000BF00BFFF2801D8984601E003F104087F
:100440004646FF2802D84FEA820803E0A2F10808D6
:100450004FEA88084746D6F800804FF00F0909FA9E
:1004600007F928EA09080CFA07F900E088E048EAE9
:100470000908C6F80080D1F8048008F08058B8F167
:10048000805F7DD100BFDFF8CC81D8F8188048F0BC
:100490000108DFF8C091C9F81880C846D8F818805C
:1004A00008F00108CDF8008000BF00BF4FEAB9385E
:1004B0004FEA920958F829504FEA82784FEA1879A2
:1004C0004FF00F0808FA09F825EA0805DFF88881D7
:1004D000434502D14FF0000816E0DFF88081434524
:1004E00002D14FF001080FE0DFF87481434502D1DB
:1004F0004FF0020808E0DFF86C81434502D14FF06D
:10050000030801E04FF004084FEA82794FEA1979B5
:1005100008FA09F848EA0505DFF84C814FEA920924
:1005200048F82950D1F8048008F48038B8F5803FA5
:100530000AD1DFF83881D8F8008048EA0008DFF8EF
:100540002C91C9F8008009E0DFF82081D8F80080FC
:1005500028EA0008DFF81491C9F80080D1F8048077
:1005600008F40038B8F5003F10D1DFF8008108F139
:100570000408D8F8008048EA0008DFF8F09000E0AE
:100580005AE009F10409C9F800800DE0DFF8DC80C9
:1005900008F10408D8F8008028EA0008DFF8CC90B9
:1005A00009F10409C9F80080D1F8048008F4801822
:1005B000B8F5801F0ED1DFF8B48008F10808D8F82C
:1005C000008048EA0008DFF8A49009F10809C9F89A
:1005D00000800DE0DFF8948008F10808D8F800806A
:1005E00028EA0008DFF8849009F10809C9F80080BA
:1005F000D1F8048008F40018B8F5001F0ED1DFF818
:100600006C8008F10C08D8F8008048EA0008DFF890
:100610005C9009F10C09C9F800800DE0DFF84C800E
:1006200008F10C08D8F8008028EA0008DFF83C90B0
:1006300009F10C09C9F80080521CD1F8008028FA91
:1006400002F8B8F1000F7FF489AEBDE8F88700002A
:10065000000011100010024000080140000C014091
:100660000010014000140140080001400004014056
:10067000024693680B400BB1012000E00020704758
:10068000C2680A400AB1416100E0016170470AB1E5
:10069000016101E00B04036170470000014800683C
:1006A000704700000C0000200348006803490978E7
:1006B00008440149086070470C0000201400002025
:1006C00010B50848006840F0100006490860032093
:1006D00000F080F80F2000F007F800F02BF8002061
:1006E00010BD00000020024070B504460E4800789E
:1006F0004FF47A71B1FBF0F00C490968B1FBF0F5E9
:10070000284600F0BDFB08B1012070BD102C07D2B7
:1007100000222146501E00F01EF80548046001E04A
:100720000120F2E70020F0E714000020180000206C
:1007300010000020704701460846002809DB00F041
:100740001F0301229A4043099B0003F1E023C3F8F1
:10075000002100BF70472DE9F05F80460D46164628
:10076000002700F095FC074639462A46334601F03B
:100770000700C0F1070ABAF1040F02D94FF0040ACA
:1007800001E0C0F1070AD14600F1040ABAF1070FEF
:1007900002D24FF0000A01E0A0F1030AD4464FF064
:1007A000010A0AFA09FAAAF1010A0AEA020A0AFA8D
:1007B0000CFA4FF0010B0BFA0CFBABF1010B0BEA3F
:1007C000030B4AEA0B042146404600F069FCBDE8F1
:1007D000F09F000000BF00F00702064B19684FF6BB
:1007E000FF031940044B0B4343EA0221014B1960FC
:1007F00000BF70470CED00E00000FA0570B504463C
:100800000D460CB9012070BD5A48006800F0070081
:10081000A8420ED25748006820F0070028435549E7
:1008200008600846006800F00700A84201D00120D7
:10083000E9E7207800F0020002281DD1207800F0BE
:100840000400042805D14C48406840F4E0604A495F
:100850004860207800F00800082805D14648406824
:1008600040F46050444948604348406820F0F0003C
:10087000A168084340494860207800F0010078B33F
:100880006068012806D13C48006800F4003090B947
:100890000120B8E76068022806D13748006800F0F8
:1008A000007040B90120AEE73348006800F0020054
:1008B00008B90120A7E73048406820F003006168CC
:1008C00008432D494860FFF7E9FE064609E0FFF7B7
:1008D000E5FE801B41F28831884202D9032092E76D
:1008E00007E02548406800F00C006168B0EB810F1C
:1008F000EDD12048006800F00700A8420ED91D483D
:10090000006820F0070028431A490860084600687C
:1009100000F00700A84201D0012074E7207800F021
:100920000400042807D11448406820F4E060E1681E
:10093000084311494860207800F00800082808D1D1
:100940000D48406820F46050216940EAC1000A491E
:10095000486000F019F808494968C1F30311074AD3
:10096000515CC8400649086006480068FFF7BCFEB5
:10097000002048E70020024000100240DE1000087E
:100980001800002010000020F0B585B00FF26C0CAC
:100990009CE8E01001A8A0E8E0101CA52D680095D7
:1009A00000210022002300240020194D696801F075
:1009B0000C05F5B1042D02D0082D19D101E0154820
:1009C00019E001ADC1F38346AC5D01F4803555B14A
:1009D0000F4D6D68C5F340451DF805200D4D65436D
:1009E000B5FBF2F302E00C4D04FB05F3184602E000
:1009F00000BF084800BF00BF05B0F0BD02030405FA
:100A0000060708090A0B0C0D0E0F1010010200005A
:100A10000010024000127A0000093D00F8B50446BB
:100A20000CB90120F8BD207800F00100002878D032
:100A3000F848406800F00C0004280CD0F5484068E5
:100A400000F00C00082811D1F248406800F4803012
:100A5000B0F5803F0AD1EF48006800F4003000286C
:100A60005FD0606800285CD10120DBE700BF6068D0
:100A7000B0F5803F06D1E748006840F48030E54992
:100A8000086028E0606858B9E248006820F48030C7
:100A9000E04908600846006820F4802008601AE0F9
:100AA0006068B0F5A02F0BD1DA48006840F48020D0
:100AB000D84908600846006840F4803008600AE0C1
:100AC000D448006820F48030D249086008460068A5
:100AD00020F48020086000BF606888B1FFF7DEFD69
:100AE000054606E0FFF7DAFD401B642801D9032024
:100AF00098E7C848006800F400300028F2D010E001
:100B0000FFF7CCFD054606E0FFF7C8FD401B642853
:100B100001D9032086E7BF48006800F400300028B0
:100B2000F2D1207800F00200022857D1B94840687D
:100B300000F00C0050B1B748406800F00C000828E5
:100B400018D1B448406800F4803098B9B1480068C2
:100B500000F0020020B12069012801D0012061E7E6
:100B6000AC48006820F0F800616940EAC100A9497A
:100B7000086033E02069E8B10120A7490860FFF769
:100B80008DFD054606E0FFF789FD401B022801D9CF
:100B9000032047E79F48006800F002000028F2D0D9
:100BA0009C48006820F0F800616940EAC10099495A
:100BB000086013E0002098490860FFF76FFD0546C4
:100BC00006E0FFF76BFD401B022801D9032029E74F
:100BD0009048006800F002000028F2D1207800F070
:100BE000080008282DD1A069B8B101208B49086000
:100BF000FFF754FD054606E0FFF750FD401B0228B5
:100C000001D903200EE78348406A00F00200002863
:100C1000F2D0012000F07AF913E000207F4908604B
:100C2000FFF73CFD054606E0FFF738FD401B0228B4
:100C300001D90320F6E67748406A00F00200002858
:100C4000F2D1207800F00400042873D10027714805
:100C5000C06900F0805070B900BF6E48C06940F0B4
:100C600080506C49C8610846C06900F0805000900F
:100C700000BF00BF01276A48006800F48070B0B967
:100C80006748006840F4807065490860FFF706FD1A
:100C9000054606E0FFF702FD401B642801D903204A
:100CA000C0E65F48006800F480700028F2D000BF02
:100CB000E068012806D15748006A40F00100554914
:100CC000086227E0E06858B95248006A20F0010045
:100CD000504908620846006A20F00400086219E0E2
:100CE000E06805280BD14B48006A40F004004949F0
:100CF00008620846006A40F0010008620AE04548C0
:100D0000006A20F00100434908620846006A20F0AA
:100D10000400086200BFE068A0B1FFF7BFFC054611
:100D200009E0FFF7BBFC401B41F28831884202D941
:100D3000032077E622E03748006A00F0020000282E
:100D4000EFD012E0FFF7AAFC054608E0FFF7A6FC8B
:100D5000401B41F28831884201D9032062E62D48C8
:100D6000006A00F002000028F0D1012F05D12948C7
:100D7000C06920F080502749C86100BFE069C8B34E
:100D80002448406800F00C00082860D0E069022880
:100D900048D1002020490866FFF780FC054606E0A0
:100DA000FFF77CFC401B022801D903203AE61948D2
:100DB000006800F000700028F2D1206AB0F5803F92
:100DC00007D11448406820F40030A1680843114955
:100DD0004860D4E9080108430E49496821F47411B8
:100DE00008430C49486001200B490866FFF756FC90
:100DF000054607E03DE0FFF751FC401B022801D902
:100E000003200FE60348006800F000700028F2D0CD
:100E10002FE00000001002400000424280044242E5
:100E200000700040002014490866FFF737FC0546B3
:100E300006E0FFF733FC401B022801D90320F1E54F
:100E40000E48006800F000700028F2D111E0E0695F
:100E5000012800D1E6E50948466806F48031206A99
:100E6000814204D106F47011606A814201D00120F0
:100E7000D8E50020D6E50000000042420010024004
:100E800070B504462546681EB0F1807F01D301206D
:100E90000FE0681E4FF0E02148610F214FF0FF3056
:100EA00000F0FEF800204FF0E02188610720086183
:100EB000002070BD00BFFEE700B585B000BF0F4841
:100EC000806940F008000D4988610846806900F09B
:100ED0000800009000BF00BF012001901120029087
:100EE0000220049001A90648FFF732FA01221146B8
:100EF0000348FFF7CCFB05B000BD00000010024026
:100F0000000C014000BFFEE77047704708B5084974
:100F10000968C9084FF47A72B1FBF2F141430091BC
:100F200000BF00BF00994A1E00920029F9D108BDF8
:100F30001800002000B58FB0012005900004069035
:100F40000020079002200C90C1030D914FF4E01196
:100F50000E9105A8FFF762FD0F200090022001907E
:100F6000002002904FF48060039000200490022142
:100F70006846FFF743FC0FB000BD704710B586B060
:100F8000044600BF2448806940F01000224988616F
:100F90000846806900F01000019000BF00BF4FF4C8
:100FA0000050029014B91D48039001E01C480390C2
:100FB0000220049002A91B48FFF7CAF9002204216D
:100FC0002820FFF7C8FB2820FFF7B5FB00BF124819
:100FD000806940F00400104988610846806900F08B
:100FE0000400019000BF00BF0120029014B90C481A
:100FF000039001E0094803900120049002A90A48E7
:10100000FFF7A6F9002203210620FFF7A4FB062024
:10101000FFF791FB06B010BD001002400000111058
:1010200000002110001001400008014010B5FFF73A
:101030003BFB10BD1148006840F001000F490860FB
:10104000084640680E4908400C4948600846006858
:101050000C490840094908600846006820F48020CF
:1010600008600846406820F4FE0048604FF41F0006
:101070008860C803044908607047000000100240FF
:101080000000FFF8FFFFF6FE08ED00E000BFFEE7FE
:1010900002480068C0F30220704700000CED00E039
:1010A00010B5002804DB0A07130E054A135406E0A6
:1010B0000A07140E034A00F00F031B1FD45410BD7F
:1010C00000E400E018ED00E0FFF7FAFAFFF732FF66
:1010D000FFF7F2FE0120FFF751FF00BFFEE700001F
:1010E00000000000000001020304060708090000D8
:1010F0000000010203040000181100080000002095
:101100001C00000028010008341100081C00002009
:10111000640600004401000800000000FF7F00009A
:10112000FF7F000000000000100000000100000030
:041130000024F400A3
:04000005080000ED02
:00000001FF
