:020000040800F2
:1000000040080020890100088D12000885120008B0
:10001000891200084302000899150008000000003A
:10002000000000000000000000000000FF120008B7
:1000300047020008000000008F12000801130008AA
:10004000A3010008A3010008A3010008A301000800
:10005000A3010008A301000849020008A301000849
:10006000A3010008A3010008A3010008A3010008E0
:10007000A3010008A3010008A3010008A3010008D0
:10008000A3010008A3010008A3010008A3010008C0
:10009000A3010008A3010008A3010008A3010008B0
:1000A000A3010008A3010008A3010008A3010008A0
:1000B000A3010008A3010008A3010008A301000890
:1000C000A3010008A3010008A3010008A301000880
:1000D000A3010008A3010008A3010008A301000870
:1000E00053020008A3010008A301000800F002F871
:1000F00000F03AF80AA090E8000C82448344AAF188
:100100000107DA4501D100F02FF8AFF2090EBAE885
:100110000F0013F0010F18BFFB1A43F0010318473B
:100120003815000058150000103A24BF78C878C16F
:10013000FAD8520724BF30C830C144BF04680C60ED
:10014000704700000023002400250026103A28BF35
:1001500078C1FBD8520728BF30C148BF0B60704739
:100160001FB51FBD10B510BD00F031F81146FFF7E7
:10017000F7FF01F02FFA00F04FF803B4FFF7F2FF9A
:1001800003BC00F057F800000948804709480047C1
:10019000FEE7FEE7FEE7FEE7FEE7FEE7FEE7FEE737
:1001A000FEE7FEE704480549054A064B7047000094
:1001B00009130008ED00000840020020400800205C
:1001C0004004002040040020704770477047754687
:1001D00000F02CF8AE4605006946534620F00700B3
:1001E000854618B020B5FFF7DDFFBDE820404FF091
:1001F00000064FF000074FF000084FF0000B21F011
:100200000701AC46ACE8C009ACE8C009ACE8C009DD
:10021000ACE8C0098D46704710B50446AFF30080C6
:100220002046BDE81040FFF7A8BF00000048704717
:10023000DC01002001491820ABBEFEE726000200C9
:10024000704700BFFEE7704710B5012000F074F85A
:1002500010BD10B54FF4005000F06EF810BD000056
:1002600070B50546012D31D0B5F5005F58D14FF47A
:1002700000512D4800F0FEF9012813D1002407E0B9
:100280004FF40051284800F0F5F900B970BD641C26
:10029000264800688442F3D340BF0121244800F07F
:1002A000F1F912E0002408E04FF400511E4800F07C
:1002B000E1F9012800D1E9E7641C1C480068844288
:1002C000F2D301211A4800F0DDF929E00121194893
:1002D00000F0D0F990B9002407E00121154800F0A2
:1002E000C9F9012800D1D1E7641C10480068844294
:1002F000F3D301210E4800F0C5F910E0002406E018
:1003000001210C4800F0B6F900B9BFE7641C0748AA
:1003100000688442F4D30121054800F0B3F900BF1E
:1003200000BF00BFB2E70000001001400400002041
:10033000000C01400008014010B504460448006864
:10034000204020B1024804602046FFF789FF10BD1D
:10035000140401402DE9F8470346002294466EE15B
:100360004FF0010808FA02F4D1F8008008EA04000E
:10037000A0427DD1DFF8DCA2D1F80480A8EB0A0905
:10038000D0453AD014DCB8F1030F50D009DCB8F1F5
:10039000000F31D0B8F1010F1CD0B8F1020F49D1D4
:1003A00020E0B8F1110F18D0B8F1120F42D11EE0C1
:1003B000B9F5881F25D006DCB9F5803F20D0B9F506
:1003C000801F37D11AE0B9F5001F18D0B9F5041F06
:1003D00030D117E0D1F80CC02DE0D1F80C8008F135
:1003E000040C28E0D1F80C8008F1080C23E0D1F8C7
:1003F0000C8008F10C0C1EE000BF00BF00BF00BF66
:1004000000BF00BFD1F80880B8F1000F02D14FF053
:10041000040C0BE0D1F80880B8F1010F03D14FF0C4
:10042000080C1C6102E04FF0080C5C6103E04FF027
:10043000000C00E000BF00BFFF2801D8984601E093
:1004400003F104084646FF2802D84FEA820803E079
:10045000A2F108084FEA88084746D6F800804FF016
:100460000F0909FA07F928EA09080CFA07F900E068
:1004700088E048EA0908C6F80080D1F8048008F04E
:100480008058B8F1805F7DD100BFDFF8CC81D8F80B
:10049000188048F00108DFF8C091C9F81880C846F4
:1004A000D8F8188008F00108CDF8008000BF00BF20
:1004B0004FEAB9384FEA920958F829504FEA827842
:1004C0004FEA18794FF00F0808FA09F825EA0805ED
:1004D000DFF88881434502D14FF0000816E0DFF8CD
:1004E0008081434502D14FF001080FE0DFF87481AD
:1004F000434502D14FF0020808E0DFF86C81434524
:1005000002D14FF0030801E04FF004084FEA82796E
:100510004FEA197908FA09F848EA0505DFF84C812D
:100520004FEA920948F82950D1F8048008F480383D
:10053000B8F5803F0AD1DFF83881D8F8008048EA62
:100540000008DFF82C91C9F8008009E0DFF820816D
:10055000D8F8008028EA0008DFF81491C9F8008074
:10056000D1F8048008F40038B8F5003F10D1DFF866
:10057000008108F10408D8F8008048EA0008DFF894
:10058000F09000E05AE009F10409C9F800800DE09C
:10059000DFF8DC8008F10408D8F8008028EA0008B9
:1005A000DFF8CC9009F10409C9F80080D1F8048083
:1005B00008F48018B8F5801F0ED1DFF8B48008F178
:1005C0000808D8F8008048EA0008DFF8A49009F18C
:1005D0000809C9F800800DE0DFF8948008F10808E8
:1005E000D8F8008028EA0008DFF8849009F10809AB
:1005F000C9F80080D1F8048008F40018B8F5001F8D
:100600000ED1DFF86C8008F10C08D8F8008048EAB9
:100610000008DFF85C9009F10C09C9F800800DE0D2
:10062000DFF84C8008F10C08D8F8008028EA0008B0
:10063000DFF83C9009F10C09C9F80080521CD1F890
:10064000008028FA02F8B8F1000F7FF489AEBDE807
:10065000F88700000000111000100240000801405F
:10066000000C01400010014000140140080001404E
:1006700000040140024693680B400BB1012000E0EA
:1006800000207047C2680A400AB1416100E0016180
:100690007047000001480068704700000C0000200F
:1006A0000348006803490978084401490860704715
:1006B0000C0000201400002010B50848006840F02D
:1006C000100006490860032000F070F80F2000F0C9
:1006D00007F800F02BF8002010BD000000200240B9
:1006E00070B504460E4800784FF47A71B1FBF0F013
:1006F0000C490968B1FBF0F5284600F0D3FB08B1BE
:10070000012070BD102C07D200222146501E00F09F
:100710000EF80548046001E00120F2E70020F0E750
:1007200014000020180000201000002070472DE960
:10073000F05F80460D461646002700F02FFF074663
:1007400039462A46334601F00700C0F1070ABAF1DC
:10075000040F02D94FF0040A01E0C0F1070AD146A4
:1007600000F1040ABAF1070F02D24FF0000A01E0CB
:10077000A0F1030AD4464FF0010A0AFA09FAAAF1D5
:10078000010A0AEA020A0AFA0CFA4FF0010B0BFA04
:100790000CFBABF1010B0BEA030B4AEA0B042146FD
:1007A000404600F003FFBDE8F09F000000BF00F0EE
:1007B0000702064B19684FF6FF031940044B0B4321
:1007C00043EA0221014B196000BF70470CED00E0C5
:1007D0000000FA0570B504460D460CB9012070BD45
:1007E0005A48006800F00700A8420ED25748006837
:1007F00020F007002843554908600846006800F0CB
:100800000700A84201D00120E9E7207800F00200AB
:1008100002281DD1207800F00400042805D14C489E
:10082000406840F4E0604A494860207800F00800E1
:10083000082805D14648406840F460504449486063
:100840004348406820F0F000A168084340494860F0
:10085000207800F0010078B36068012806D13C4898
:10086000006800F4003090B90120B8E76068022801
:1008700006D13748006800F0007040B90120AEE7AB
:100880003348006800F0020008B90120A7E73048AB
:10089000406820F00300616808432D494860FFF775
:1008A000F9FE064609E0FFF7F5FE801B41F28831AC
:1008B000884202D9032092E707E02548406800F00B
:1008C0000C006168B0EB810FEDD12048006800F0AA
:1008D0000700A8420ED91D48006820F007002843F1
:1008E0001A4908600846006800F00700A84201D0D5
:1008F000012074E7207800F00400042807D1144890
:10090000406820F4E060E1680843114948602078BD
:1009100000F00800082808D10D48406820F4605015
:10092000216940EAC1000A49486000F03FF80849DF
:100930004968C1F30311074A515CC8400649086081
:1009400006480068FFF7CCFE002048E70020024080
:10095000001002404016000818000020100000207F
:1009600001480068704700001800002000B5FFF73C
:10097000F7FF04494968C1F30221034A515CC840AA
:1009800000BD0000001002405016000800B5FFF73F
:10099000E7FF04494968C1F3C221034A515CC840DA
:1009A00000BD00000010024050160008F0B585B0F0
:1009B0000FF26C0C9CE8E01001A8A0E8E0101CA568
:1009C0002D68009500210022002300240020194DED
:1009D000696801F00C05F5B1042D02D0082D19D17C
:1009E00001E0154819E001ADC1F38346AC5D01F4A7
:1009F000803555B10F4D6D68C5F340451DF8052094
:100A00000D4D6543B5FBF2F302E00C4D04FB05F31D
:100A1000184602E000BF084800BF00BF05B0F0BDA7
:100A200002030405060708090A0B0C0D0E0F10102F
:100A3000010200000010024000127A0000093D008F
:100A4000F8B504460CB90120F8BD207800F001008B
:100A5000002878D0F848406800F00C0004280CD03A
:100A6000F548406800F00C00082811D1F2484068B1
:100A700000F48030B0F5803F0AD1EF48006800F400
:100A8000003000285FD0606800285CD10120DBE7DF
:100A900000BF6068B0F5803F06D1E748006840F4C9
:100AA0008030E549086028E0606858B9E24800688D
:100AB00020F48030E04908600846006820F4802077
:100AC00008601AE06068B0F5A02F0BD1DA48006822
:100AD00040F48020D84908600846006840F480301F
:100AE00008600AE0D448006820F48030D2490860E9
:100AF0000846006820F48020086000BF606888B164
:100B0000FFF7C8FD054606E0FFF7C4FD401B64285B
:100B100001D9032098E7C848006800F40030002895
:100B2000F2D010E0FFF7B6FD054606E0FFF7B2FD94
:100B3000401B642801D9032086E7BF48006800F401
:100B400000300028F2D1207800F00200022857D1AE
:100B5000B948406800F00C0050B1B748406800F058
:100B60000C00082818D1B448406800F4803098B9C7
:100B7000B148006800F0020020B12069012801D0CE
:100B8000012061E7AC48006820F0F800616940EAA4
:100B9000C100A949086033E02069E8B10120A749F4
:100BA0000860FFF777FD054606E0FFF773FD401B81
:100BB000022801D9032047E79F48006800F002009F
:100BC0000028F2D09C48006820F0F800616940EAF3
:100BD000C1009949086013E0002098490860FFF7B8
:100BE00059FD054606E0FFF755FD401B022801D9D7
:100BF000032029E79048006800F002000028F2D1A5
:100C0000207800F0080008282DD1A069B8B1012093
:100C10008B490860FFF73EFD054606E0FFF73AFD09
:100C2000401B022801D903200EE78348406A00F0E8
:100C300002000028F2D0012000F02AFB13E000207F
:100C40007F490860FFF726FD054606E0FFF722FD15
:100C5000401B022801D90320F6E67748406A00F0DD
:100C600002000028F2D1207800F00400042873D19B
:100C700000277148C06900F0805070B900BF6E480D
:100C8000C06940F080506C49C8610846C06900F0F6
:100C90008050009000BF00BF01276A48006800F440
:100CA0008070B0B96748006840F48070654908609A
:100CB000FFF7F0FC054606E0FFF7ECFC401B64285C
:100CC00001D90320C0E65F48006800F48070002866
:100CD000F2D000BFE068012806D15748006A40F012
:100CE00001005549086227E0E06858B95248006A97
:100CF00020F00100504908620846006A20F0040014
:100D0000086219E0E06805280BD14B48006A40F002
:100D10000400494908620846006A40F00100086280
:100D20000AE04548006A20F001004349086208468D
:100D3000006A20F00400086200BFE068A0B1FFF77D
:100D4000A9FC054609E0FFF7A5FC401B41F28831EC
:100D5000884202D9032077E622E03748006A00F093
:100D600002000028EFD012E0FFF794FC054608E0EF
:100D7000FFF790FC401B41F28831884201D90320E3
:100D800062E62D48006A00F002000028F0D1012F31
:100D900005D12948C06920F080502749C86100BFAB
:100DA000E069C8B32448406800F00C00082860D00F
:100DB000E069022848D1002020490866FFF76AFC54
:100DC000054606E0FFF766FC401B022801D9032018
:100DD0003AE61948006800F000700028F2D1206A55
:100DE000B0F5803F07D11448406820F40030A16876
:100DF000084311494860D4E9080108430E4949688D
:100E000021F4741108430C49486001200B4908661D
:100E1000FFF740FC054607E03DE0FFF73BFC401BC9
:100E2000022801D903200FE60348006800F0007093
:100E30000028F2D02FE000000010024000004242E3
:100E40008004424200700040002014490866FFF709
:100E500021FC054606E0FFF71DFC401B022801D9D6
:100E60000320F1E50E48006800F000700028F2D180
:100E700011E0E069012800D1E6E50948466806F47A
:100E80008031206A814204D106F47011606A814287
:100E900001D00120D8E50020D6E500000000424244
:100EA0000010024070B504462546681EB0F1807FF0
:100EB00001D301200FE0681E4FF0E02148610F21AF
:100EC0004FF0FF3000F072FB00204FF0E02188610E
:100ED00007200861002070BD10B504460CB9012040
:100EE00010BDA06900B100E000BF94F8390028B936
:100EF000002084F83800204600F028F8242084F8E8
:100F000039002068C06820F400502168C86020467D
:100F100000F03CFA2068006920F4904021680861E4
:100F20002068406920F02A00216848612068C06874
:100F300040F400502168C8600020E063202084F85D
:100F4000390084F83A000020CAE7000010B586B0E6
:100F5000044658492068884244D100BF56488069F9
:100F600040F00100544988610846806900F00100A2
:100F7000019000BF00BF00BF0846806940F0080034
:100F800088610846806900F00800019000BF00BF3A
:100F900000BF0846806940F4804088610846806947
:100FA00000F48040019000BF00BF00BF4349486883
:100FB00040F0E06040F00400486000BF4020029034
:100FC000022003900120059002A93D48FFF7C2F9D5
:100FD0008020029000200390049002A93848FFF777
:100FE000B9F965E03749206888422ED100BF324800
:100FF000806940F00400304988610846806900F04B
:101000000400019000BF00BF00BF0846C06940F463
:101010000030C8610846C06900F40030019000BF8C
:1010200000BF04200290022003900120059002A935
:101030002548FFF78FF908200290002003900490C4
:1010400002A92148FFF786F932E02049206888424A
:101050002ED100BF1848806940F008001649886109
:101060000846806900F00800019000BF00BF00BF83
:101070000846C06940F48020C8610846C06900F491
:101080008020019000BF00BF08150290022003904D
:101090000120059002A90A48FFF75CF94FF40060AF
:1010A000029000200390049002A90548FFF752F92E
:1010B00006B010BD003801400010024000000140A1
:1010C000000C01400044004000080140004800407E
:1010D0002DE9F84304460D4616461F464FF0000919
:1010E00094F83A00202860D105B116B90120BDE876
:1010F000F88300BF94F83800012801D10220F6E7F8
:10110000012084F8380000BF0020E063222084F82A
:101110003A00FFF7BFFA8146A685E68539E0E08D03
:10112000401EE085A068B0F5805F1BD14B460022D1
:1011300020212046009700F0F9F908B10320D6E7F6
:10114000A846206938B920684068C0F30800A8F8AC
:101150000000AD1C1DE020684068C0B2A8F8000087
:101160006D1C16E04B46002220212046009700F01F
:10117000DDF908B10320BAE7206920B9206840688A
:1011800005F8010B05E02068406800F07F0005F8D5
:10119000010BE08D0028C2D1202084F83A0000BF66
:1011A000002084F8380000BFA1E702209FE72DE966
:1011B000F84304460D4616461F464FF0000994F8C2
:1011C000390020285CD105B116B90120BDE8F883AB
:1011D00000BF94F83800012801D10220F6E7012071
:1011E00084F8380000BF0020E063212084F8390033
:1011F000FFF750FA8146A684E6842BE0E08C401E7F
:10120000E084A068B0F5805F16D14B4600228021B3
:101210002046009700F08AF908B10320D6E7A846D7
:10122000B8F80000C0F3080021684860206908B9D8
:10123000AD1C0FE06D1C0DE04B46002280212046C6
:10124000009700F073F908B10320BFE715F8010B10
:1012500021684860E08C0028D0D14B460022402114
:101260002046009700F062F908B10320AEE7202085
:1012700084F8390000BF002084F8380000BFA5E7DB
:101280000220A3E700BFFEE700BFFEE770477047FC
:1012900008B508490968C9084FF47A72B1FBF2F140
:1012A0004143009100BF00BF00994A1E00920029EF
:1012B000F9D108BD1800002000B58FB001200590BD
:1012C000000406900020079002200C90C1030D91AD
:1012D0004FF4E0110E9105A8FFF7B2FB0F2000902C
:1012E00002200190002002904FF4806003900020C3
:1012F000049002216846FFF76DFA0FB000BD7047F9
:1013000010B5FFF7CDF910BD1148006840F001009D
:101310000F490860084640680E4908400C4948607B
:10132000084600680C4908400949086008460068FA
:1013300020F4802008600846406820F4FE004860E1
:101340004FF41F008860C80304490860704700001C
:10135000001002400000FFF8FFFFF6FE08ED00E07D
:1013600010B5044607480849086008464460002153
:101370008160C16001610C21416100218161FFF741
:10138000ABFD10BD003801401C01002070B50446C3
:101390002168096921F44051E26811432268116112
:1013A0002269A1681143626941EA02052168C9689E
:1013B00041F20C62914329432268D1602168496956
:1013C00021F44071A269114322685161564A216893
:1013D000914254D1FFF7DAFA00EBC00101EB0011A2
:1013E00062689200B1FBF2F100EBC00202EB001266
:1013F00063689B00B2FBF3F26423B2FBF3F202EBEF
:10140000C20303EB0212A1EB8201322202EB0111B3
:101410006422B1FBF2F101F0F00100EBC00202EB3B
:10142000001263689B00B2FBF3F26423B2FBF3F299
:1014300001EB021200EBC00101EB001163689B009D
:10144000B1FBF3F100EBC00303EB00136668B600D9
:10145000B3FBF6F36426B3FBF6F303EBC30606EB2C
:101460000313A1EB8301322303EB01116423B1FBCE
:10147000F3F101F00F0111442268916053E0FFF78E
:1014800075FA00EBC00101EB001162689200B1FB3C
:10149000F2F100EBC00202EB001263689B00B2FBAA
:1014A000F3F26423B2FBF3F202EBC20303EB02128A
:1014B000A1EB8201322202EB01116422B1FBF2F1B5
:1014C00001F0F00100EBC00202EB001263689B0028
:1014D000B2FBF3F26423B2FBF3F201EB021200EB76
:1014E000C00101EB001163689B00B1FBF3F100EB5D
:1014F000C00303EB00136668B600B3FBF6F3642683
:10150000B3FBF6F303EBC30606EB0313A1EB830176
:10151000322303EB01116423B1FBF3F101F00F015E
:1015200011442268916070BD003801402DE9F041FE
:1015300004460D4617469846069E21E0701CF8B1F9
:101540002EB1FFF7A7F8A0EB0800B04218D9206829
:10155000C06820F4D0702168C8602068406920F01D
:10156000010021684861202084F8390084F83A009D
:1015700000BF002084F8380000BF0320BDE8F081E0
:10158000206800682840A84201D1012000E0002026
:10159000B842D3D00020F1E700BFFEE70248006860
:1015A000C0F30220704700000CED00E010B50028E9
:1015B00004DB0A07130E054A135406E00A07140E4B
:1015C000034A00F00F031B1FD45410BD00E400E0D9
:1015D00018ED00E0FFF770F8FFF76EFE4FF46120A2
:1015E000FFF7BEFE26E0C8231A4613491348FFF74B
:1015F0006FFD30B101280BD002280AD0032818D182
:1016000008E0C8231A460C490C48FFF7D0FD10E04B
:101610000FE00EE00948C08DC72809D00748C08DEB
:10162000C0F1C70082B2C82303490448FFF7BFFDD9
:1016300000BF00BFD7E700001C0000201C010020F5
:101640000000000000000000010203040607080972
:1016500000000000010203047816000800000020CA
:101660001C00000028010008941600081C0000203F
:10167000240800004401000800000000FF7F000073
:10168000FF7F0000000000001000000001000000CB
:041690000024F4003E
:04000005080000ED02
:00000001FF
